:100000000C94D1010C94EB2A0C9405290C94EB2A46
:100010000C943D210C947D210C947A220C94B423F1
:100020000C94EB2A0C94EB2A0C94EB2A0C94EB2AFC
:100030000C94EB2A0C94EB2A0C94EB2A0C94EB2AEC
:100040000C94EB2A0C94EB2A0C94EB2A0C94EB2ADC
:100050000C94EB2A0C94EB2A0C94EB2A0C94EB2ACC
:100060000C94EB2A0C94EB2A0C94EB2A0C94EB2ABC
:100070000C94EB2A0C94EB2A0C94F62824173517D1
:100080005317B817B817B8175317B817B817531727
:10009000B817B817B817B817B817B817B817B817E8
:1000A000B817B817B817B817B817B817B817B817D8
:1000B000AD179717A217B817B817B817B817B8170A
:1000C000B817B817B817B817B817B817B817B817B8
:1000D000B817B817B817B817B817B817B817B817A8
:1000E000B817B817B817B817B817B817B817B81798
:1000F000B817B817B817B817B817B817B817B81788
:10010000B8175D177017B817B81783179017B81777
:10011000B817B817B817B817B817B817B817B81767
:10012000B817B817DF17DF176C027402F4027403F4
:10013000A103F703FE033B04D6053E06D308D3080C
:10014000D308D308D308D308D308D308D308D308D7
:10015000D308D308D308D308D30870067A067A06E2
:1001600090069706A406FB061207D308D308D30807
:100170003E076107D308D308D3084508D308D3083E
:10018000D308D3084508D308D308D308D308D30825
:10019000D308D308D308BD07C807D3074508EF071E
:1001A00002081E083408D308D308D308D3089D02D8
:1001B000E602ED02D308D308D308D308D308D30846
:1001C0006108D308D308D308D308D3088E089C0845
:1001D000AF08BA08E009560A560A560A560A560ADD
:1001E000560A560A560A560A560ABB09560A560AAB
:1001F000B409560A560A560A560A560A560AAA094F
:10020000560A560A560A560A560A560A560A560AEE
:10021000E709560AD909560A560A560A560A560ACC
:10022000560A560A560A560A560A560A560A560ACE
:10023000560A560A560A560A560A560A560A560ABE
:10024000560A560A560A560A560A560A560A560AAE
:10025000560A560A560A560AEE09560A560A560A07
:10026000560A560A560AF5092E0A460A460A460A48
:10027000460A460A460A460A560A460A460A460AEE
:10028000460A460A460A460A460A560A460A560ACE
:10029000460A180A460A460A460A460A460A460A0C
:1002A000460A460A460A460A460A460A460A460ACE
:1002B000350A460A460A460A560A460A460A460ABF
:1002C000460A460A460A460A460A460A460A560A9E
:1002D000460A560A460A1F0A460A460A460A560AA5
:1002E000560A560A560A560A460A460A460A460A4E
:1002F000460A460A460A3C0A220BFC0A220B220B3B
:10030000220B220B220B220B220B220B220B140B93
:10031000220B220B1F0E220B470B810BE70BBC0B92
:10032000130C1F0E130C1F0E190C130C1F0E1F0E97
:100330001F0E1F0EDB0B1F0E1F0E1F0DAA0C1F0E14
:100340006E0C2A0C510CA40DC30DEE0DAA0C9D0DC4
:100350000F0E0F0EAA0C090E090E090E030E090E40
:100360003800385480385438780055FE3878389C36
:1003700080389C38D100562238D138EB8038EB38A1
:10038000ED00565738ED38F88038F838FA005659ED
:1003900038FA38FB8038FB38FC00565B38FC38FEF6
:1003A000800011241FBECFEFCDBFDFE3DEBFE0E64C
:1003B000F3E043E017C0B591A591359125910591E2
:1003C00007FD0CC095918591EF01F92FE82F05905D
:1003D0000D92A217B307D9F7FE0104C01D92A21710
:1003E000B307E1F7E13AF40731F70E942B250C94AB
:0603F000F901F894FFCFB3
:1003F6002F923F924F925F926F927F928F929F922F
:10040600AF92BF92CF92DF92EF92FF920F931F931C
:10041600CF93DF93CDB7DEB7EC97CDBFDEBF3C0100
:10042600FC01E15AFF4F81E0808372978081882327
:1004360029F0C3010E94C2138111C4C6230100E53D
:10044600400E511C13011EE4210E311C63012DE4E4
:10045600C20ED11CA301435D5E4F49A75AA7B30143
:10046600625D7E4F6BA77CA7C3018F5B9F4F8FA7F3
:1004760098ABD301A55FBE4FA9ABBAABF301E05C65
:10048600FF4FEDABFEAB83010D571F4F0DA31EA310
:1004960093012C573F4F2DA73EA74C5951094BA30B
:1004A6005CA36B5971096FA378A78C5B9F4F8BABCD
:1004B6009CABD201FC90F101F0828F2D90E0FC0103
:1004C6003297E635F10508F06BC6EC56FF4F0C94F3
:1004D600972A65E0C3010E941429C3010E94F227EE
:1004E6005FC6D301DB968C91DB97823059F4DC969C
:1004F6008C918230C1F446E950E06CE1C3010E9460
:10050600021E4EC6813009F062C6F30184AD813009
:1005160039F446E950E06DE1C3010E94021E40C66F
:10052600823009F074C646E950E064E0C3010E94D7
:10053600021E36C6C3010E94A61D682FC3010E9473
:100546001429F301E75DFE4F80819181A281B38179
:10055600892B8A2B8B2BB1F40E945D1EF301E75D7C
:10056600FE4FDC01CB018C599F4FAF4FBF4F8083AD
:100576009183A283B38344E650E067E4C3010E94FB
:10058600021E0EC60E945D1EF301E75DFE4F8080CF
:100596009180A280B380DC01CB0188199909AA0950
:1005A600BB0952F40E945D1EA401461B570B67E46B
:1005B600C3010E94021EF4C540E050E06DE0C30195
:1005C6000E94021EEDC546E950E064E0C3010E94A8
:1005D600021EE6C540E050E06DE0C3010E94021E27
:1005E600DFC5D301DE968C91DE978111FFC511E040
:1005F600DC968C91823009F010E0F30180A191A184
:10060600DC011E96ED91FC911F97612F09959923A8
:100616000CF402C6F30115AF21E041E061E0C3012D
:100626000E94B72899230CF4D7C5D30190968D91D3
:100636009C919197DC015A96ED91FC915B9761E054
:10064600099599230CF4C8C5111105C0F30184ADB1
:10065600813079F407C0113061F4D301DB968C91B7
:10066600813039F461E0C3010E941E288C01992370
:10067600DCF061E0C3010E9478258C01992384F0A7
:10068600EFA1F8A51082D301D8961D921C92D99796
:1006960081E0DE968C93F301EB5BFF4F8083A6C56A
:1006A60060E0C3010E941E28F30180A191A1DC0134
:1006B6005A96ED91FC915B9760E00995C3010E9403
:1006C600A61D682FC3010E94142911231CF040EEB9
:1006D60051E002C040E050E062E0C3010E94021E09
:1006E6005FC581E0F30186AF17A2E357FF4F108283
:1006F600118232961082118282E090E038978083D0
:1007060091833296108211823296108211828FEF77
:100716009FEF3A968083918331971082EB59FF4F72
:10072600108211823D96108211821282138244E653
:1007360050E066E0C3010E94021E32C5D3019496C2
:100746008C91813009F049C0F301E357FF4F808156
:100756009181019680839183039738F040E050E0C1
:1007660068E0C3010E94021E1BC5AE014F5F5F4FCA
:100776008EE1FA0111928A95E9F7F301E557FF4FE9
:10078600808191819C0127703327322F2227330FD6
:10079600215B3F4E29833A83019687709927808390
:1007A600918381E090E8A0E0BFEF8B839C83AD83CB
:1007B600BE8361E0C3010E94571A99233CF44DE2BF
:1007C60050E066E0C3010E94021EEAC44EE150E01A
:1007D60067E0C3010E94021EE3C442E350E068E002
:1007E600C3010E94021EDCC440E050E068E0C30181
:1007F6000E94021ED5C4F301E157FF4F808191810B
:10080600019680839183829738F040E050E06BE058
:10081600C3010E94021EC4C4C3010E94E6178E30A3
:10082600F2ED9F0731F4AFA1B8A58C91882319F09A
:10083600B7C499233CF446E950E068E0C3010E943E
:10084600021EAEC4EBA1FCA110821182F301E15796
:10085600FF4F1082118281E0AFA1B8A58C932DE1E4
:1008660030E040E050E06FE1C3010E94082898C4E0
:10087600F301E956FF4F4081518162817381DB01AB
:10088600CA01072E7CE1B695A795979587957A9527
:10089600D1F7702DDC01A770BB27E05AFF4FA0836C
:1008A600B183109709F446C13497808191818A17E4
:1008B6009B0708F43FC1FD01EE0FFF1FEE0FFF1F60
:1008C600E554F74C80809180A280B3809501840125
:1008D6000F2EFEE13695279517950795FA95D1F7D0
:1008E600F02D802F013009F479C030F0023021F06C
:1008F600033009F4A2C01EC19A013370F901EE0F4C
:10090600FF1F220F331F220F331F220F331F8F01AA
:10091600020F131F0F8F18A394013370F901EE0F06
:10092600FF1F220F331F220F331F220F331F8F018A
:10093600020F131F0BAF1CAF8A019B010F2EFAE0AB
:100946003695279517950795FA95D1F7F02D0FABA4
:1009560018AF29AF3AAF98013370F901EE0FFF1FB8
:10096600220F331F220F331F220F331F2E0F3F1F5D
:10097600EBADFCADE217F30708F4DCC00F8D18A150
:10098600E017F10710F472FFD5C08111C0C0F30162
:10099600EE5FFE4F072E7AE0B694A794979487945D
:1009A6007A95D1F7702D13E0912282E3889DA001FC
:1009B600899D500D112460E070E04083518362836D
:1009C600738334974BAD5CAD8A0120E030E0008341
:1009D6001183228333833C96108299C0CA01937097
:1009E6000F2EFAEFEF2EF02DE89E8001E99E100DF6
:1009F600112483E09822E89CF001E99CF00D112473
:100A06004A015B01072E7AE0B694A79497948794DF
:100A16007A95D1F7702DC4019370E89E9001E99EF6
:100A2600300D1124E217F30708F484C0E017F1072C
:100A360008F06DC072FD6BC07DC08A019B010F2E50
:100A4600F9E03695279517950795FA95D1F7F02D84
:100A5600C8019770E4E1E89F9001E99F300D1124E9
:100A66004F77552712E3149FF001159FF00D1124BF
:100A7600EFABF8AFC4018F779927189FF001199F44
:100A8600F00D1124B501A401032E31E17695679589
:100A9600579547953A95D1F7302D4F8F58A369A3AF
:100AA6007AA3CA01992714E6189FA001199F500D31
:100AB6001124892C9A2CAB2CBB249924189DC00197
:100AC600199D900D112428173907A0F142175307D5
:100AD60088F16FA978ADE617F70760F1683E83E005
:100AE600780740F1F301EE5FFE4F890120E030E028
:100AF60000831183228333833497AB0160E070E077
:100B0600408351836283738383E03C968083F30141
:100B1600EA5BFF4F81E0119709F080E0808363E094
:100B2600C3010E94691FF301E65FFE4F8081833097
:100B360059F518C064E0C3010E94691FF301EC5621
:100B4600FF4F8081811107C040E050E06CE0C30197
:100B56000E94021E25C340E050E06BE0C3010E94E4
:100B6600021E1EC3F301E950FF4F208131813296E8
:100B7600808191812817390739F440E050E06AE016
:100B8600C3010E94021E06C049E150E06AE0C301AB
:100B96000E94021EF301E950FF4F80819181329637
:100BA60080839183FDC2D30190968D919C919197FC
:100BB600F301E250FF4F00811181228133815301FD
:100BC600BEEFAB1ABB0AF501408151816281738188
:100BD600DC015696ED91FC915797D301A65FBE4F67
:100BE600EC900995F50140815181628173813496BB
:100BF60080819181A281B381481B590B6A0B7B0BC3
:100C0600CA01992324F488279927841B950B6FE53D
:100C160070E00E944628072E000C880B990B653061
:100C260071058105910520F465E070E080E090E0B3
:100C36000E948B24F301EE5FFE4F80819181A28199
:100C4600B381349680839183A283B38366E0C30124
:100C56000E94691F81E0F301EC56FF4F808383E019
:100C6600D30197968C9320E030E0A9016BE0C30195
:100C76000E94082895C2F301EC56FF4F8081882315
:100C860011F1EA58FF4F80818330E9F4EBA1FCA112
:100C960080819181029758F0AFA1B8A58C918111FE
:100CA60008C0F30185A1813031F06DE005C06FE128
:100CB60003C063E501C062E028EC32E340E050E0A7
:100CC600C3010E940828ABA1BCA11D921C92F3018E
:100CD600E55BFF4F1082118263C2C3010E94F227B7
:100CE60040E050E062E0C3010E94021E59C2F301D7
:100CF60086AD811155C221E041E061E0C3010E9449
:100D0600B72899230CF47CC2D301D8961D921C9265
:100D1600D99781E0DE968C9343C246E950E06BE1B9
:100D2600C3010E94021E3CC240E050E065E0C301E0
:100D36000E94571A40E050E060E2C3010E94021E82
:100D46002FC2F301E757FF4F1082118232961082AD
:100D560011828FEF9FEF3A9680839183EBA1FCA1DE
:100D660080819181019680839183D30190968D91A4
:100D76009C919197DC015A96ED91FC915B9760E00E
:100D8600099581E0F301EB5BFF4F8083F30185A1B9
:100D9600813039F5EE5FFE4F6081718182819381EA
:100DA60020ED37E040E050E00E94732687E190E0B6
:100DB600A0E0B0E04C015D01821A930AA40AB50ACC
:100DC600B501A401ABA5BCA58C91882329F066E5E5
:100DD600C3010E94021EE4C161E2C3010E94021E19
:100DE600DFC140E050E063E2C3010E94021ED8C1A9
:100DF60060E0C3010E941E2860E0C3010E947825BE
:100E060021E041E0E9A5FAA56081C3010E94B72867
:100E160044E952E062E2C3010E94021EC1C1D3014D
:100E260090968D919C919197DC015A96ED91FC914B
:100E36005B9761E0099561E0C3010E947825F301A3
:100E460085AD811104C084AD813051F405C0813077
:100E560039F483AD813021F461E0C3010E941E287C
:100E660061E0C3010E94812840EE51E062E0C301C7
:100E76000E94021E95C1F301E757FF4F10821182AF
:100E86003296108211828FEF9FEF3A96808391837C
:100E960063E0C3010E94691FF30185A1813039F423
:100EA60040E050E068E0C3010E94021E79C140E0C4
:100EB60050E065E1C3010E94021E72C1F301E757CB
:100EC600FF4F108211823296108211828FEF9FEFB0
:100ED6003A96808391836DE0C3010E94691F892B36
:100EE60021F1ABA1BCA18D919C91029780F0EFA15D
:100EF600F8A5808181110DC0D30195968C91813022
:100F060051F0F2018081853141F06DE007C06FE15B
:100F160005C063E503C062E001C06AE120E030E09D
:100F2600A901C3010E9408283BC1ABA1BCA18D91B8
:100F36009C91029780F0EFA1F8A5808181110DC0E8
:100F4600D30195968C91813051F0F20180818531E3
:100F560041F06DE007C06FE105C063E503C062E0E4
:100F660001C06AE12DE130E040E050E0C3010E949B
:100F7600082816C163E0C3010E94691F40E050E0E3
:100F86006DE3C3010E94021E0BC16BE0C3010E9408
:100F9600691F4DE150E06BE3C3010E94021E00C1D0
:100FA600ADA1BEA18C91882351F08EE092EDEBA904
:100FB600FCA9808391831C92ADA5BEA51C92F3016A
:100FC60085A1813011F06AE101C06BE040E050E09C
:100FD600C3010E94021EE4C0D30194968C91813015
:100FE60039F440E050E06EE3C3010E94021ED8C00F
:100FF60040E050E06FE3C3010E94021ED1C0EBA1A6
:10100600FCA180819181029758F0AFA1B8A58C917F
:10101600811108C0F30185A1813031F06DE005C072
:101026006FE103C063E501C062E044E650E0C3013E
:101036000E94021EB5C061E0C3010E941E2866E040
:10104600C3010E94691FD30195968C91813011F0DE
:101056006AE101C06BE040E050E0C3010E94021E5D
:101066009FC060E0C3010E941E28F30185A1813064
:1010760011F06AE101C06BE040E050E0C3010E945C
:10108600021E8EC0ADA1BEA18C91882321F01C92B8
:10109600EDA5FEA51082D30195968C91813039F489
:1010A60040E050E06BE0C3010E94021E79C040E0C0
:1010B60050E06AE1C3010E94021E72C0E9A9FAA9C2
:1010C60080819181A281B38188279927AA27B07F41
:1010D6000097A105B04509F063C040E050E067E025
:1010E600C3010E94571AADA9BEA98C91823031F472
:1010F600F30185A1813031F06DE007C0882321F02E
:101106006DE003C062E001C062E040E050E0C30170
:101116000E94021E45C0C3010E94111F60E0C30168
:101126000E94142944E650E065E5C3010E94021EB0
:1011360037C0AFA5B8A98C91811103C000E010E0BB
:1011460002C008E913E0C3010E94C325A801682F65
:10115600C3010E94021E24C060E0C3010E9414293C
:101166004CE251E067E5C3010E94021E19C060E02F
:10117600C3010E941E2860E0C3010E94782521E079
:1011860041E0E9A5FAA56081C3010E94B728ABA595
:10119600BCA51C9240ED57E062E0C3010E94021E0E
:1011A600F6018081882319F0C3010E94C213D2017F
:1011B6008C91F81639F0F301EF5AFF4F808188239E
:1011C60009F477C9F301E15AFF4F108234C0F301E5
:1011D60084AD823059F5A7C9C3010E94A61D682FA8
:1011E600C3010E94142940E050E076CAC3010E9460
:1011F600A61D682FC3010E94142940EE51E06CCA57
:1012060040E050E06BE1C3010E94021EC9CFD60147
:101216008C918823B9F2C8CFC3010E94A61D682FFE
:10122600C3010E94142940E050E056CAF6018081AD
:10123600882341F2B9CFEC96CDBFDEBFDF91CF91C7
:101246001F910F91FF90EF90DF90CF90BF90AF90DE
:101256009F908F907F906F905F904F903F902F90D0
:021266000895E9
:101268002F923F924F925F926F927F928F929F92AE
:10127800AF92BF92CF92DF92EF92FF920F931F939C
:10128800CF93DF93CDB7DEB72A97CDBFDEBF7C0102
:101298008C01055A1F4F8F569F4F8B839C83670184
:1012A80091E4C90ED11C1701A2E42A0E311C470192
:1012B800B0E58B0E911CF701E55BFF4FEF83F887D4
:1012C800C701895B9F4F89879A87BFC442FE1DC0AB
:1012D800C7010E94512681110EC0AB81BC818D913E
:1012E8009C91029710F063E501C060E240E050E095
:1012F800C7010E94021EF80180819181A281B381F9
:101308008B7F80839183A283B38341FED5C0D701AD
:1013180090968D919C919197DC011696ED91FC9198
:1013280017970995892B09F46EC021E0F6012083EF
:10133800D401EC918E2F90E0FC013497EA34F1054A
:1013480008F0B0C0E651FF4F0C94972A21E0F50150
:10135800208340E050E06AE1C7010E94021EA2C05B
:1013680040E050E062E1C7010E94021E9BC0AF81CD
:10137800B8858D919C91892B69F4E985FA858081DE
:101388009181019749F4AD81BE818C91823031F40D
:1013980068E405C060E103C060E101C060E140E0CD
:1013A80050E0C7010E94021E7DC040E050E065E2A7
:1013B800C7010E94021E76C040E050E065E0C70108
:1013C8000E94021E6FC044E650E065E0C7010E941B
:1013D800021E68C040E050E065E4C7010E94021E9A
:1013E80061C0F70183AD8350833008F074C484ADC5
:1013F8008350833008F456C040E050E060E1C701F4
:101408000E94021E4FC0D6011C92F1011082D40125
:10141800EC918E2F90E0FC013E97E834F10590F5B1
:10142800EC5CFE4F0C94972A40E050E064E2C70160
:101438000E94021E37C0F70183AD823009F052C402
:1014480084AD823079F140E050E066E4C7010E9443
:10145800021E28C040E050E06DE0C7010E94021E55
:1014680021C040E050E063E3C7010E94021E1AC099
:10147800C7010E94C32540E050E0682FC7010E94C1
:10148800021E10C0D70195968C91959781110AC0BC
:10149800DE968C91882331F040E050E06DE0C70182
:1014A8000E94021EF80180819181A281B3818D7F03
:1014B80080839183A283B38340FE28C065E070E0F7
:1014C80080E090E00E948B24D70190968D919C91AA
:1014D8009197DC011C96ED91FC911D97AE014F5F31
:1014E8005F4FBE016E5F7F4F0995892B29F44981B3
:1014F8006A81C7010E940517F80180819181A28144
:10150800B3818E7F80839183A283B38343FEA6C376
:10151800A0902838B0902938D501DE968C91DE97B6
:10152800882309F488C380912A3890912B38FC01CC
:10153800EF71FF279C01232F332726952770332728
:10154800AB56BF4F4D915C912417350719F4ED3018
:1015580009F071C3D501AB56BF4F2D933C939C0145
:1015680036952795329522952F7023273F7023278C
:10157800B1E02B27217031E0D50196964C9141308E
:1015880009F030E0231739F040E050E063E5C50189
:101598000E94021E50C399230CF056C080912C382B
:1015A80090912D38992364F06AE270E080E090E031
:1015B8000E948B24F501E35BFF4F83E080833BC3EC
:1015C80091704B9760F06AE270E080E090E00E94D2
:1015D8008B24F501E35BFF4F83E080832CC33197B5
:1015E800E031F10508F027C3E458FE4F0C94972A20
:1015F800809131388E7039F040E050E061E5C501E6
:101608000E94021E18C3F50185A1813011F06AE11C
:1016180001C06BE040E050E0C5010E94021E0BC310
:10162800D50195968C91813011F06AE101C06BE08B
:1016380040E050E0C5010E94021EFDC2F501E35BD7
:10164800FF4F83E08083F7C29C01232F3327229525
:101658002F70277033272115310509F4EEC00024B7
:10166800880F991F001C880F991F001C892F902D27
:10167800837099273197EF30F10508F0DCC2E45701
:10168800FE4F0C94972AF50145A14111D4C2ACE252
:10169800B8E3E556FF4FA901440F551F440F551FE6
:1016A80045565F4F4A0D5B1D4D905D906D907D9046
:1016B80041925192619271924E175F07A9F7F50115
:1016C800E954FF4F20833183009709F4B4C2823074
:1016D800910518F4F09780839183F501E957FF4F3E
:1016E80080819181809348389093493840E050E058
:1016F80066E1C5010E94021E9EC2D50195964C91D5
:10170800413019F42130310531F0F501E35BFF4F29
:1017180081E0808390C2009731F4F501E35BFF4FCD
:1017280081E0808388C28230910528F4F501E95769
:10173800FF4F80839183F501E957FF4F80819181A5
:101748008093483890934938709680912C389091BE
:101758002D38A0912E38B0912F3880839183A283A1
:10176800B38340E050E069E0C5010E94021E63C2F5
:10177800ACE2B8E3F501E754FF4FC901880F991FA0
:10178800880F991F87549F4F8A0D9B1D4D915D911E
:101798006D917D914193519361937193E817F90786
:1017A800A9F7F501EB52FF4F2083318344C2F501BD
:1017B800E957FF4F80819181029708F43CC2FA975C
:1017C80083E0808338C2F501E05BFF4F80818B3076
:1017D80019F08A3109F02FC2F501EE5FFE4F8081C2
:1017E8009181A281B38188389341A105B10509F09F
:1017F80022C2F501E55FFE4F80912C3890912D387B
:10180800A0912E38B0912F3880839183A283B3831F
:1018180040E050E06EE4C5010E94021E0CC2F501D2
:10182800E35BFF4F83E0808306C220E030E0A9013C
:101838006FE1C5010E940828FEC13197E531F10525
:1018480008F0E9C1E556FE4F0C94972AF501E05BD4
:10185800FF4F80818B3019F08A3199F018C0F5015B
:10186800ED56FF4F8081882329F080E290E034977D
:101878008083918340E050E068E0C5010E94021E29
:10188800DAC1F501E35BFF4F85E08083D4C1F50140
:10189800E35BFF4F81E08083CEC1F501E05BFF4F42
:1018A80080818B3059F08A3149F0883069F440E002
:1018B80050E067E2C5010E94021EBDC1F501E35B6D
:1018C800FF4F84E08083B7C1F501E35BFF4F81E000
:1018D8008083B1C1F501E05BFF4F8081843309F15A
:1018E80018F4883131F0A7C1863311F18E3339F1FC
:1018F800A2C1F501EF5BFF4F8081882359F0ED5AB3
:10190800FF4F81E0808340E050E06AE1C5010E941A
:10191800021E91C140E050E069E1C5010E94021E2B
:101928008AC140E050E065E3C5010E94021E83C100
:1019380040E050E067E3C5010E94021E7CC140E020
:1019480050E060E4C5010E94021E75C1F501E05B2C
:10195800FF4F8081893209F444C028F4863151F060
:101968008731B9F068C18E3209F449C08A3309F465
:1019780054C061C1F501EC56FF4F8081811102C04E
:1019880065E101C06AE140E050E0C5010E94021E25
:1019980052C1F501E55EFE4FD501AE5FBE4F8D9198
:1019A8009D910D90BC91A02D80839183A283B383D8
:1019B8003496D501A250BF4F8D919D910D90BC9149
:1019C800A02D80839183A283B38337968EE092ED16
:1019D8008083918340E050E06AE1C5010E94021EC5
:1019E8002AC1F501EB57FF4F8EE092ED808391837A
:1019F80040E050E06BE2C5010E94021E1CC1F501E7
:101A0800EB57FF4F8EE092ED8083918340E050E0EA
:101A180060E3C5010E94021E0EC1F501EB57FF4F9E
:101A28008EE092ED8083918340E050E06CE3C50145
:101A38000E94021E00C1F501E05BFF4F80818732E2
:101A480009F441C028F4863169F08731B1F06AC0E1
:101A58008E3209F459C08A3309F45DC0893209F01D
:101A680061C04BC0F501EC5DFE4F108240E050E0D4
:101A780068E1C5010E94021EDEC0F501EC5DFE4F63
:101A880081E08083B297D501A55EBE4F8D919D916F
:101A98000D90BC91A02D80839183A283B38334974A
:101AA800D501A15EBE4F8D919D910D90BC91A02D49
:101AB80080839183A283B38340E050E068E1C5014D
:101AC8000E94021EB8C081E090E0F501E757FF4F81
:101AD800808391838FEF9FEF3C9680839183D5011C
:101AE80095968C91813011F065E101C068E040E085
:101AF80050E0C5010E94021E9EC040E050E06CE22A
:101B0800C5010E94021E97C040E050E061E3C50194
:101B18000E94021E90C040E050E06DE3C5010E94A3
:101B2800021E89C040E050E067E2C5010E94021E23
:101B380082C040E050E066E2C5010E94021E7BC000
:101B4800F501E05CFF4F8081823021F03D9681E015
:101B5800808371C0F501E05BFF4F80818B3011F00D
:101B68008A3139F440E050E068E2C5010E94021E63
:101B780062C0F501E35BFF4F82E080835CC0F50142
:101B8800E05CFF4F8081823081F0E95BFF4F80810C
:101B98009181029720F4FA9781E080834CC0F50187
:101BA800E35BFF4F83E0808346C0F501E05BFF4FB6
:101BB80080818B3011F08A3139F440E050E06DE2D9
:101BC800C5010E94021E37C0F501E35BFF4F82E0AA
:101BD800808331C0F501E05BFF4F80818B3011F0CD
:101BE8008A3139F440E050E069E3C5010E94021EE1
:101BF80022C0F501E35BFF4F82E080831CC0F50142
:101C0800E35BFF4F86E0808316C0F501E35BFF4F7F
:101C180083E0808310C0F501E957FF4F80819181EF
:101C2800029720F4FA9781E0808305C0F501E35B11
:101C3800FF4F83E08083F80180819181A281B38185
:101C4800877F80839183A283B383C701805C9F4F82
:101C58008D839E83570194E9A90EB11CD8014D903C
:101C68005D906D907C90411451046104710409F0F9
:101C78002DCBF701E05AFF4F8081882339F0C70147
:101C88000E94FB01F701E05AFF4F1082F701E35B66
:101C9800FF4F8081882319F081E073968083F701D4
:101CA800EF5AFF4F8081882311F10E945D1EF701D2
:101CB800EE5AFF4F0081118122813381601771072D
:101CC80082079307A0F0319740E050E06081C70198
:101CD8000E94021E0CC0F70184AD8350833008F0C7
:101CE800E1CB8ACB84AD823009F0DCCBACCB2A9631
:101CF800CDBFDEBFDF91CF911F910F91FF90EF9085
:101D0800DF90CF90BF90AF909F908F907F906F9013
:0A1D18005F904F903F902F900895C8
:101D2200CF92DF92EF92FF920F931F93CF93DF93A5
:101D3200CDB7DEB7AA97CDBFDEBF8C01AE014F5F34
:101D42005F4F60E170E00E94B424898180FF05C08A
:101D5200D8018D919C910E947329898181FF05C0D0
:101D6200F801808191810E94802989819A8191FF65
:101D72002CC0D8011296ED91FC911397808121E03D
:101D820030E0AE014D5F5F4F6FE170E090E00E9486
:101D92002A2AD8011296ED91FC9113978B819C818E
:101DA2008FA398A7808121E030E0AE01495D5F4FAB
:101DB2006FE170E090E00E94322A8B8187FF05C0BC
:101DC200F801808191810E94E82A89819A81992370
:101DD2000CF047C0D8011296ED91FC9113978081C7
:101DE20021E030E0AE014F5D5F4F6BE870E090E0C4
:101DF2000E942A2AD8011296ED91FC91139789A18B
:101E02009AA18DA39EA3808121E030E0AE014B5DBB
:101E12005F4F6BE870E090E00E94322A89A180FF58
:101E220020C0D8011296ED91FC911397808121E098
:101E320030E0AE014D5F5F4F6DE870E090E00E94D0
:101E42002A2A8B8187FF07C061E0F8018081918196
:101E52000E94B12A06C060E0D8018D919C910E9437
:101E6200B12A89819A8190FF08C0C8010E94851B0E
:101E7200F801808191810E948D2949815A81CA018C
:101E82008B7F009731F0AC0160E170E0C8010E94E5
:101E92004A27898182FFAFC0D8011296ED91FC9149
:101EA2001397808120E230E048E058E360E370E07D
:101EB20090E00E942A2AD0900838B2E0BD1540F086
:101EC20044E050E060E170E0C8010E944A271BC173
:101ED200E8E0F8E3C180E380F12CFE2CEE2482815D
:101EE200E80EF11CEB82FC824D2D50E0435051096B
:101EF2006CE078E3CE0105960E94112AE1E0CE1251
:101F020031C08D899E89AF89B88D80769927AA279D
:101F1200BB27689414F8B695A7959795879516945C
:101F2200D1F781309105A105B10509F0CCC0EFEBE5
:101F3200F8E38CE291E9A1E0B4E080839183A2838B
:101F4200B3838CE291EDA2E0B0E084839583A68313
:101F5200B7838CE391E2ACEDB0EC80879187A287E6
:101F6200B38742C0F3E0FD15B8F5C7018F71992719
:101F7200833091F58D819E81AF81B885882799271D
:101F8200AA27B07F0097A105B04831F5D801129673
:101F9200ED91FC911397808121E030E0AE014F5D1D
:101FA2005F4F69E170E090E00E942A2AD801129600
:101FB200ED91FC91139789A19AA182608BA39CA3B6
:101FC200808121E030E0AE014D5D5F4F69E170E05C
:101FD20090E00E94322A08C0BE016D5F7F4FF80177
:101FE200808191810E947F2744E050E060E170E0AF
:101FF200C8010E944A27898183FF49C0D8011296ED
:10200200ED91FC911397808121E030E0AE01475DB4
:102012005F4F69E170E090E00E942A2AD80112968F
:10202200ED91FC91139789A59AA58D7F89A39AA317
:10203200808121E030E0AE014F5D5F4F69E170E0E9
:1020420090E00E94322AF8018481882329F084E0FA
:1020520090E089A79AA702C019A61AA6D8011296DB
:10206200ED91FC91139789A59AA58B839C8380811E
:1020720021E030E0AE014D5F5F4F64E170E090E03F
:102082000E94322AF801808191810E948D298981E2
:1020920086FF07C060E0D8018D919C910E943A2A88
:1020A20032C085FF07C061E0F801808191810E9402
:1020B2003A2A29C084FF27C062E0D8018D919C9101
:1020C2000E943A2A20C00297A105B10509F08CCFDF
:1020D200EFEBF8E38CE291E9A1E0B4E08083918335
:1020E200A283B3838CE291EDA2E0B0E08483958376
:1020F200A683B7838CE391E2ACEDB0EC8087918745
:10210200A287B38771CF81E0AA96CDBFDEBFDF91F0
:10211200CF911F910F91FF90EF90DF90CF90089594
:102122008F929F92BF92CF92DF92EF92FF920F9384
:102132001F93CF93DF93CDB7DEB76A97CDBFDEBFD4
:102142006C01162FB42E7C0185E0E81AF108AE016D
:102152004D5F5F4F62E170E0C7010E94B42440E02E
:1021620050E062E170E0C7010E944A27D70112964F
:10217200ED91FC911397808121E030E0AE014F5F39
:102182005F4F6CE170E090E00E942A2AD70112961C
:10219200ED91FC91139789819A818062898F9A8F40
:1021A200808121E030E0AE01475E5F4F6CE170E07C
:1021B20090E00E94322A11110EC1EFEBF8E38CE29B
:1021C20091E9A1E0B4E080839183A283B3838CE29E
:1021D20091EDA2E0B0E084839583A683B7838CE37C
:1021E20091E2ACEDB0EC80879187A287B387F701CB
:1021F2000280F381E02D808121E030E0AE014F5F6B
:102202005F4F6EE170E090E00E942A2A898184FF8C
:1022120087C0D7011296ED91FC9113978AE490E062
:102222008F87988B808121E030E0AE01415F5F4F64
:102232006AE770E090E00E94322AD7011296ED918F
:10224200FC91139781E090E0898B9A8B808121E049
:1022520030E0AE014F5E5F4F6BE770E090E00E94AE
:10226200322AD7011296ED91FC91139788E890E0FB
:102272008B8B9C8B808121E030E0AE014D5E5F4F05
:1022820063E270E090E00E94322A8C016AEF70E013
:1022920080E090E00E948B24D7011296ED91FC9190
:1022A200139786E690E08D8B9E8B808121E030E053
:1022B200AE014B5E5F4F63E270E090E00E94322A13
:1022C200082B192BD7011296ED91FC91139780815F
:1022D20021E030E0AE014F5F5F4F6CE170E090E0D3
:1022E2000E942A2AD7011296ED91FC9113978981B7
:1022F2009A8184608F8B988F808121E030E0AE01DB
:10230200495E5F4F6CE170E090E00E94322A082B38
:10231200192B64E670E080E090E00E948B2408C0F4
:102322006AEF70E080E090E00E948B2400E010E011
:102332004601B5E08B1A9108D4011296ED91FC91F9
:102342001397808121E030E0AE014F5F5F4F6CE177
:1023520070E090E00E942A2AD4011296ED91FC913D
:10236200139789819A818B7E8D879E87808121E058
:1023720030E0AE01435F5F4F6CE170E090E00E949D
:10238200322A802B912B99230CF495C0BB20B9F0F3
:10239200F60135970280F381E02D85E590E08D838B
:1023A2009E83808121E030E0AE014B5F5F4F63E2AC
:1023B20070E090E00E94322A99230CF47CC04B8199
:1023C2005C8162E170E0C7010E944A2780E090E0F0
:1023D20072C0C80170C04601B5E08B1A9108D401E1
:1023E2001296ED91FC911397808121E030E0AE01CD
:1023F2004F5F5F4F6CE170E090E00E942A2AD401A7
:102402001296ED91FC91139789819A818B7E80615E
:102412008F839887808121E030E0AE01495F5F4F72
:102422006CE170E090E00E94322A8C01D401129695
:10243200ED91FC9113978091FA3890E08B7F898718
:102442009A87808121E030E0AE01475F5F4F66E806
:1024520070E090E00E94322A082B192B48EB5BE0D7
:1024620060E070E0C7010E94E41C40E85CE060E0CC
:1024720070E0C7010E94042548E853E160E070E083
:10248200C7010E943724D4011296ED91FC91139753
:1024920087E790E08B879C87808121E030E0AE0166
:1024A200455F5F4F63E270E090E00E94322A1123A1
:1024B2000CF06CCF8ECF6A96CDBFDEBFDF91CF918D
:1024C2001F910F91FF90EF90DF90CF90BF909F9060
:0424D2008F9008954A
:1024D6004F925F926F927F928F929F92AF92BF922E
:1024E600EF92FF920F931F93CF93DF93CDB7DEB793
:1024F6006297CDBFDEBF7C010E945D1E4B015C0171
:1025060020ED820E27E0921EA11CB11C870105500A
:1025160011091DC0D8011296ED91FC911397808187
:1025260021E030E0AE014F5F5F4F6EE170E090E07A
:102536000E942A2A898186FF13C020E23EE440E0F9
:1025460050E060E177E280E090E00E9461240E9422
:102556005D1E24013501461A570A680A790AD2F621
:102566000E945D1E861A970AA80AB90A0AF4F3C0E1
:10257600F70135978481882329F084E090E08983E8
:102586009A8302C019821A82F70135970280F38175
:10259600E02D89819A81898B9A8B808121E030E0B8
:1025A600AE014F5E5F4F64E170E090E00E94322A18
:1025B60099230CF4D2C0F70135970280F381E02D00
:1025C60083E390E08F87988B808121E030E0AE0135
:1025D600415F5F4F63E270E090E00E94322A9923E8
:1025E6000CF4BBC025E0E21AF10840E050E062E1DD
:1025F60070E0C7010E944A27D7011296ED91FC911F
:102606001397808121E030E0AE014F5F5F4F6CE1B0
:1026160070E090E00E942A2AD7011296ED91FC9173
:10262600139789819A818F7B8B839C83808121E09C
:1026360030E0AE014D5F5F4F6CE170E090E00E94CC
:10264600322A8FEF90E089839A83D7011296ED9113
:10265600FC91139781E890E08D839E83808121E031
:1026660030E0AE014B5F5F4F6AE870E090E00E9499
:10267600322A8091EB38837080648093FA38D701D0
:102686001296ED91FC9113971F821886808121E0A6
:1026960030E0AE01495F5F4F67E870E090E00E946E
:1026A600322AD7011296ED91FC91139785E090E0BE
:1026B60089879A87808121E030E0AE01475F5F4FCE
:1026C60061E870E090E00E94322A87E78093FB3849
:1026D600D7011296ED91FC91139787E790E08B87CF
:1026E6009C87808121E030E0AE01455F5F4F63E863
:1026F60070E090E00E94322A40E050E064E770E02B
:10270600C7010E944A27D7011296ED91FC911397B3
:1027160083E090E08D879E87808121E030E0AE01E6
:10272600435F5F4F68E870E090E00E94322A8DE7D1
:1027360092E889839A83F7018481882321F08FE7C1
:1027460092E889839A8349815A8162E170E0C701E0
:102756000E944A2702C08EE092ED6296CDBFDEBF90
:10276600DF91CF911F910F91FF90EF90BF90AF90A7
:0E2776009F908F907F906F905F904F9008958E
:102784002F923F924F925F926F927F928F929F927D
:10279400AF92BF92CF92DF92EF92FF920F931F936B
:1027A400CF93DF93CDB7DEB76E97CDBFDEBF7C018D
:1027B4008C01035B1F4F0F2EFEE12F2EF02DCE0157
:1027C40001966C01470197E8890E911C5701A9E80D
:1027D400AA0EB11C6894662462F8772477F827015E
:1027E400B8ED4B1ABEEF5B0A33243A94F8018081AA
:1027F40010828330C1F028F4813081F0823049F0B6
:10280400CDC0853009F47EC098F0863009F47EC0CE
:10281400C5C06CE0C7010E94691FC0C064E0C70165
:102824000E94691FBBC060E1C7010E94691FB6C056
:10283400D601E22D1D92EA95E9F7D4018D919C9180
:102844008230910568F5F70125A1213019F044E0A3
:1028540050E002C044E051E0D70196962C9121301B
:1028640019F060E070E002C060E270E0F5012081E0
:10287400318127703327322F2227330F0024969576
:1028840087950794969587950794982F802D282BE4
:10289400392B422B532B462B572B49835A832CC05D
:1028A400D70195962C91213019F020E130E002C037
:1028B40020E131E0F70146A1413019F040E050E059
:1028C40002C040E250E0D5016D917C91677077279A
:1028D400762F6627770F002496958795079496950B
:1028E40087950794982F802D862B972B822B932BDB
:1028F400842B952B89839A83A60160E0C7010E94EB
:10290400571A4CC0C7010E94E61748C0F601822D31
:1029140011928A95E9F7D70195968C91813019F037
:102924004CE050E002C04CE051E0F70186A1813058
:1029340019F060E070E002C060E270E0D4018D91B3
:102944009C9100249695879507949695879507946E
:10295400982F802DFC01F06AD5018D919C91877090
:1029640099279C01322F2227330FCF01822B932BDF
:10297400842B952B862B972B89839A836B827C825D
:10298400F2018081880F880F880F88873F823E82FA
:102994003D82A60160E0C7010E94571AD8018C91BC
:1029A400811124CFF701EF5AFF4F808181111082EA
:1029B40080E06E96CDBFDEBFDF91CF911F910F9166
:1029C400FF90EF90DF90CF90BF90AF909F908F904B
:0E29D4007F906F905F904F903F902F900895EE
:1029E2000F931F93CF93DF938230910510F482E00F
:1029F20090E0E0914C38F0914D3820E030E0A0E0DA
:102A0200B0E0309719F1408151810281138148175A
:102A12005907C8F08417950769F4109731F0129698
:102A22000C93129713961C9327C000934C38109363
:102A32004D3822C02115310519F04217530718F4F9
:102A42009A01BD01EF01DF01F801DBCF211531054C
:102A5200F9F0281B390B2430310580F48A819B81DF
:102A62006115710521F0FB018283938304C0809379
:102A72004C3890934D38FE01329644C0FE01E20F6D
:102A8200F31F8193919322503109288339833AC0ED
:102A920020914A3830914B38232B41F42091CD3884
:102AA2003091CE3820934A3830934B382091CB382E
:102AB2003091CC382115310541F42DB73EB7409104
:102AC200CF385091D038241B350BE0914A38F09121
:102AD2004B38E217F307A0F42E1B3F0B28173907D8
:102AE20078F0AC014E5F5F4F2417350748F04E0F68
:102AF2005F1F40934A3850934B388193919302C0A1
:102B0200E0E0F0E0CF01DF91CF911F910F910895A6
:102B1200CF93DF93009709F481C0FC0132971282B0
:102B22001382A0914C38B0914D38109781F42081D6
:102B32003181820F931F20914A3830914B382817E8
:102B4200390751F5E0934A38F0934B3867C0ED01ED
:102B520020E030E0CE17DF0740F44A815B819E011E
:102B620041155105F1F0EA01F5CFC283D3834081CB
:102B72005181840F951FC817D90759F4888199810B
:102B8200840F951F0296808391838A819B81828321
:102B920093832115310529F4E0934C38F0934D3895
:102BA2003DC0E901EA83FB8349915991C40FD51FC6
:102BB200EC17FD0761F480819181840F951F0296C5
:102BC200E90188839983828193818A839B83E0E0F0
:102BD200F0E012968D919C911397009719F0FD01E8
:102BE200DC01F7CF8D919C9111979D012E5F3F4F94
:102BF200820F931F20914A3830914B38281739079A
:102C020069F4309729F410924C3810924D3802C072
:102C120012821382A0934A38B0934B38DF91CF913E
:022C2200089513
:102C24003F924F925F926F927F928F929F92AF9258
:102C3400BF92CF92DF92EF92FF920F931F93CF93A5
:102C4400DF93CDB7DEB72A97CDBFDEBF6C014A0153
:102C54005B01280139013E2C7C0185E0E81AF1086A
:102C6400CB01BA012AE030E040E050E00E94732634
:102C74008901065F1F4FA0E3B1E0A50194010E9402
:102C8400EB2920EA36E841E050E00E947326021B5B
:102C9400130BD7011296ED91FC911397C801992754
:102CA4008F839887808121E030E0AE01495F5F4FD8
:102CB4006AE770E090E00E94322AD7011296ED9103
:102CC400FC91139719871A86808121E030E0AE01C8
:102CD400475F5F4F6BE770E090E00E94322A31104B
:102CE4000EC0B301A20148535F4F6F4F7F4FC7011E
:102CF4000E9404258091F838811133C04BC0B30180
:102D0400A201475E5F4F6F4F7F4FC7010E940425AA
:102D14008091F8383816F1F1B3E03B1222C0F60185
:102D240035970280F381E02D8091FA38846090E039
:102D34008D839E83808121E030E0AE014B5F5F4F45
:102D440066E870E090E00E94322A08EA11E620E08A
:102D540030E046E85BE060E070E0C7010E94BE1826
:102D640019C0F60135970280F381E02D8091FA387D
:102D740090E08B7F8B839C83808121E030E0AE01E7
:102D84004D5F5F4F66E870E090E00E94322AC70111
:102D94000E94851B3092F838F60135970280F38142
:102DA400E02D88E890E089839A83808121E030E0F7
:102DB400AE014F5F5F4F63E270E090E00E94322A01
:102DC400082F192FB501A401C7010E943724802FB1
:102DD400912F1816190614F480E090E02A96CDBFBE
:102DE400DEBFDF91CF911F910F91FF90EF90DF90A5
:102DF400CF90BF90AF909F908F907F906F905F9097
:062E04004F903F9008957D
:102E0A00EF92FF920F931F93CF93DF93EC01162F4C
:102E1A00042FFBACECAC6BAF4CAF0E945126FE0109
:102E2A00E05BFF4FE0814E2F50E0FA013297E63522
:102E3A00F10508F098C0E25CFF4F0C94972A123013
:102E4A0041F0113009F0A9C0013019F0023009F03F
:102E5A00B1C040E050E063E0CE010E94021EAAC069
:102E6A00811109C0113019F401110CC004C00130DC
:102E7A0049F4111107C040E050E062E0CE010E941F
:102E8A00021E98C0F11203C0E01609F493C040E094
:102E9A0050E063E0CE010E94021E8CC0882309F430
:102EAA0089C040E050E062E0CE010E94021E82C06A
:102EBA00FE01EF5BFF4F808181117CC0123009F067
:102ECA006FC0023009F476C040E050E066E4CE01FB
:102EDA000E94021E6FC0FE01EF5BFF4F80818111CD
:102EEA0006C0123009F05FC0023009F063C040E04A
:102EFA0050E065E4CE010E94021E5CC0123009F067
:102F0A0056C0023009F456C040E050E06AE4CE01EF
:102F1A000E94021E4FC040E050E069E4CE010E94C8
:102F2A00021E48C0112311F0011144C040E050E0D4
:102F3A006EE1CE010E94021E3DC01130D9F501306A
:102F4A00C9F540E050E06DE1CE010E94021E32C098
:102F5A00112311F001112EC040E050E06BE1CE01C7
:102F6A000E94021E27C0882329F1FE01E05CFF4F60
:102F7A008081823029F48DA1813031F06DE007C063
:102F8A00882321F06DE003C062E001C062E040E006
:102F9A0050E0CE010E94021E0DC0023059F459CFF2
:102FAA00023041F491CF023009F0A1CF03C00230C0
:102FBA0009F4AACFDF91CF911F910F91FF90EF9063
:022FCA00089568
:102FCC008F929F92BF92CF92DF92EF92FF920F93CC
:102FDC001F93CF93DF93CDB7DEB76E97CDBFDEBF18
:102FEC00FE0131962EE1DF011D922A95E9F7FC01D5
:102FFC00ED50FF4F6081718161157105C1F1EC5687
:10300C00F109008111814FEB58E34E01B3E08B0EB7
:10301C00911CE05BFF4F20E030E002301105A0F482
:10302C00C080D180E280F3800B2EBEE1F694E79451
:10303C00D794C794BA95D1F7B02D0F2EF3E0BF2ECD
:10304C00F02DCB1409F446C02F5F3F4FDA01CD9021
:10305C00DD90ED90FD90AD01D401CD92DD92ED921D
:10306C00FD924D01349626173707B9F634C0FC0192
:10307C0025A1213019F0E4E0F0E002C0E4E0F1E039
:10308C00DC0196962C91213019F060E070E002C0C2
:10309C0060E270E0DC01A757BF4F2D913C91119776
:1030AC0027703327322F2227330F12974D915C91C3
:1030BC000024569547950794569547950794542F99
:1030CC00402D242B352B2E2B3F2B262B372B2983B6
:1030DC003A8339C0B901FC0125A1213019F0E1E096
:1030EC00F0E002C0E1E0F1E0DC0196962C91213099
:1030FC0019F040E050E002C040E250E0DC01A7577C
:10310C00BF4F2D913C9127703327322F2227330F3D
:10311C000024169507950794169507950794102F7C
:10312C00002D022B132B9B0127703327322F2227C4
:10313C003295307FB801622B732B6E2B7F2B462B75
:10314C00572B49835A83AE014F5F5F4F60E00E945B
:10315C00571A6E96CDBFDEBFDF91CF911F910F91A5
:10316C00FF90EF90DF90CF90BF909F908F9008953D
:10317C004F925F926F927F928F929F92AF92BF927B
:10318C00EF92FF920F931F93CF93DF93CDB7DEB7E0
:10319C006297CDBFDEBF7C010F87188B298B3A8BD2
:1031AC000F2EF9E14F2E512C612C712CF02DCB01EF
:1031BC00BA01A30192010E94732649015A016F853D
:1031CC00788989899A89A30192010E947326290121
:1031DC003A01D7011296ED91FC911397C9019927E9
:1031EC008D839E83808121E030E0AE014B5F5F4F89
:1031FC0066E770E090E00E94322AD7011296ED91BA
:10320C00FC911397452C5524B3E04B2255244F8247
:10321C005886808121E030E0AE01495F5F4F67E75F
:10322C0070E090E00E94322AD7011296ED91FC9149
:10323C001397C401992789879A87808121E030E010
:10324C00AE01475F5F4F68E770E090E00E94322A62
:10325C00D7011296ED91FC911397892C9924B3E028
:10326C008B2299248B869C86808121E030E0AE01F4
:10327C00455F5F4F69E770E090E00E94322AAE0133
:10328C004F5F5F4F62E170E0C7010E94B424498137
:10329C005A814068516062E170E0C7010E944A2780
:1032AC00D7011296ED91FC911397808121E030E0CB
:1032BC00AE014D5F5F4F6CE170E090E00E942A2AF6
:1032CC00D7011296ED91FC9113978B819C818F7D88
:1032DC008D879E87808121E030E0AE01435F5F4F98
:1032EC006CE170E090E00E94322A6296CDBFDEBFA6
:1032FC00DF91CF911F910F91FF90EF90BF90AF9006
:0E330C009F908F907F906F905F904F900895EC
:10331A00CF92DF92EF92FF920F931F93CF93DF9397
:10332A00FC01892B09F495C086819781892B09F4C0
:10333A0093C082859385892B09F491C084859585EC
:10334A00892B09F48FC086859785892B09F48DC04E
:10335A0082899389892B09F48BC084899589892B61
:10336A0009F489C0828D938D892B09F487C0848DD5
:10337A00958D892B09F485C084A195A1892B09F41F
:10338A0083C08F018FE291E00E94F114EC01892B36
:10339A0009F47DC08091FC3891E0980F9093FC3835
:1033AA00888308A319A3FE01EF5AFF4F10823297B0
:1033BA001082319610821BAE1CAE6E0180E4C80EDC
:1033CA00D11CF601108281E08DA38EA38CA3F80193
:1033DA00E080F180F7014281538160817181CE01E1
:1033EA0089529F4F0E940C26FE01ED50FF4F8083A9
:1033FA009183F701808990E089879A8786858B83F4
:10340A0097859C83E8A1F9A10190F081E02D92892A
:10341A00FE01E35DFE4F9083F801228133812A8BFE
:10342A003B8B20E231E02D833E8320E033E02F8383
:10343A0038879E01285D3F4F2EAB3FABF601808354
:10344A00E251FF4F1082CE010E94451D8C2F9D2F05
:10345A0020C08EE092ED1DC08EE092ED1AC08EE083
:10346A0092ED17C08EE092ED14C08EE092ED11C07D
:10347A008EE092ED0EC08EE092ED0BC08EE092EDE2
:10348A0008C08EE092ED05C08EE092ED02C08EE09B
:10349A0092EDDF91CF911F910F91FF90EF90DF9006
:0434AA00CF90089522
:1034AE00BF92CF92DF92EF92FF920F931F93CF9323
:1034BE00DF938C01B62EFC01EF59FF4F1082DC0119
:1034CE0090968D919C919197DC019496ED91FC9143
:1034DE009597099599230CF471C00E945D1EE80121
:1034EE00CF59DF4F6B017C01B4E6CB0ED11CE11C32
:1034FE00F11C07C00E945D1E6C157D058E059F0593
:10350E0018F488818823B1F3F801EE59FF4F8081BA
:10351E00882319F0823001F149C0B1100DC0F801B5
:10352E00E757FF4F8081918101968770992780839D
:10353E00918380E090E042C0E1E0BE123AC0F80113
:10354E00E557FF4F8081918101968770992780837F
:10355E00918380E090E032C0B1100BC0F801E757C4
:10356E00FF4F808191810196877099278083918387
:10357E000DC0F1E0BF120AC0F801E557FF4F808180
:10358E00918101968770992780839183F801ED567A
:10359E00FF4F8081882381F020E030E0A90167E2AF
:1035AE00C8010E9408288EE092ED08C08EE092EDD0
:1035BE0005C080E090E002C08EE092EDDF91CF91E9
:1035CE001F910F91FF90EF90DF90CF90BF900895D5
:1035DE00CF93DF9355990FC081E090E08093F3383D
:1035EE009093F4388091EF389091F03801968436AC
:1035FE00910530F47CC01092F3381092F4386AC002
:10360E0084E690E08093EF389093F0388091F5380F
:10361E009091F638892B09F06EC081E090E080938E
:10362E00F5389093F6388091F1389091F238803ACF
:10363E00910599F481E090E08093EB389093EC380B
:10364E008AE090E08093F1389093F23880E1809395
:10365E00460488E08093450412C082E090E0809397
:10366E00EB389093EC3880EA90E08093F1389093A9
:10367E00F23880E18093450488E0809346041092EE
:10368E00ED381092EE38C1EFD8E310C08091ED38CE
:10369E009091EE3801968093ED389093EE38C29764
:1036AE0028F01092ED381092EE3807C0688180E154
:1036BE0090E00E94F5268111E9CF1092FD380E940C
:1036CE00422A81E08093FD388091F3389091F4384E
:1036DE00892B89F41092EF381092F0381092ED3851
:1036EE001092EE381092F5381092F63804C080938E
:0C36FE00EF389093F038DF91CF910895E1
:10370A000F931F93CF93DF93CDB7DEB72A97CDBF21
:10371A00DEBF8C01AE014F5F5F4F62E170E00E9435
:10372A00B42449815A814F775E7F62E170E0C80113
:10373A000E944A271B821C821D821E821F821886B3
:10374A00D8011296ED91FC911397808121E030E027
:10375A00AE014D5F5F4F6CE170E090E00E942A2A53
:10376A008B819C8180628B839C83D8011296ED9118
:10377A00FC91139789879A87808121E030E0AE0116
:10378A00475F5F4F6CE170E090E00E94322AD801F7
:10379A001296ED91FC911397808121E030E0AE0101
:1037AA004B5F5F4F6CE170E090E00E942A2A2B8108
:1037BA003C818D819E8182279327882359F08F81AE
:1037CA0098859C012F5F3F4F2F8338878436910558
:1037DA0009F0B6CF40E851E060E170E0C8010E940C
:1037EA004A272A96CDBFDEBFDF91CF911F910F9155
:0237FA00089530
:1037FC00CF93DF930E941227C0E0D4E01882A0E29E
:10380C00B4E084E08C93E0E4F4E098E190831C82D3
:10381C0014968C9314971482188A198A1A8A1B8A04
:10382C001C8A1D8A1E8A1F8A50961C92509751968C
:10383C001C92519752961C92529753961C925397E6
:10384C0054961C92549755961C92559756961C92CA
:10385C0056978BE057968C93108A118A83E0828B53
:10386C00138A148A158A168A178AE0E0F2E010820D
:10387C0011821282138287EF9AE28093E33890933D
:10388C00E43888EF9AE28093E1389093E23889EF3C
:10389C009AE28093DF389093E0388AEF9AE2809333
:1038AC00DD389093DE388BEF9AE28093DB3890937F
:1038BC00DC388CEF9AE28093D9389093DA388DEF1C
:1038CC009AE28093D7389093D8388EEF9AE280930F
:0C38DC00D5389093D638DF91CF91089535
:1038E800DF92EF92FF920F931F93CF93DF93CDB7A1
:1038F800DEB7A297CDBFDEBF7C01D62E411551059C
:1039080071F0FA0190818181082F02950F7010E003
:1039180007701127000F111F000F111F04C090E03E
:1039280080E000E010E022E0200F29839A838B8357
:10393800BA016E5F7F4FA801CE0104960E94112A3A
:1039480098012D5F3F4FF70135970280F381E02DF5
:103958008081AE014F5F5F4F61E570E090E00E94AB
:10396800322A8091483890914938029720F46D2D79
:10397800606370E003C06D2D606270E0F7013597F9
:103988000280F381E02D69A37AA3808121E030E0F1
:10399800AE014F5D5F4F60E570E090E00E94322A13
:1039A8001816190614F480E090E0A296CDBFDEBF89
:1039B800DF91CF911F910F91FF90EF90DF900895C5
:1039C800CF92DF92EF92FF920F931F93CF93DF93E3
:1039D80000D000D0CDB7DEB78C016A017B01DC01D5
:1039E8001296ED91FC911397808121E030E0AE01B1
:1039F8004F5F5F4F6AE170E090E00E942A2ABCEDB9
:103A0800CB16B5E0DB06E104F10441F088EBC816FB
:103A18008BE0D806E104F10441F00EC089819A8157
:103A28008F7C806189839A830CC089819A818F7C7D
:103A3800806289839A8305C089819A818F7C898372
:103A48009A83D8011296ED91FC91139789819A81F6
:103A58008B839C83808121E030E0AE014D5F5F4F16
:103A68006AE170E090E00E94322A2496CDBFDEBF62
:103A7800DF91CF911F910F91FF90EF90DF90CF9042
:023A880008959F
:103A8A000F931F93CF93DF9300D0CDB7DEB78C018E
:103A9A00DC0190968D919C919197DC011496ED91A1
:103AAA00FC9115970995C8010E94111FF80180A180
:103ABA0091A1DC011696ED91FC9117970995F801F1
:103ACA00EF5BFF4F21E0009709F420E02083892B68
:103ADA0029F081E0F801EE5BFF4F8083C8010E9464
:103AEA00C32540E050E0682FC8010E94021EF80179
:103AFA00E55AFF4F1082118212821382F80180A1C7
:103B0A0091A1DC011C96ED91FC911D97AE014E5FCF
:103B1A005F4FBE016F5F7F4F0995892B29F44A8158
:103B2A006981C8010E94051740E050E064E5C801B8
:103B3A000E94021E0F900F90DF91CF911F910F915B
:023B4A000895DC
:103B4C001F93CF93DF93FC01E952FF4FDC01AD5083
:103B5C00BF4FCD91DC911C161D060CF044C020E02B
:103B6C0030E012E34191519161917191DB01CA01F5
:103B7C00072E7EE1B695A795979587957A95D1F7FF
:103B8C00702D811129C0DB01CA01072E7AE0B69590
:103B9C00A795979587957A95D1F7702D9370189F67
:103BAC00D001199FB00D1124A838B341A9F453705A
:103BBC00CA01880F991F440F551F440F551F440FFE
:103BCC00551F480F591F483B8BE0580770F44C3D6C
:103BDC00554068F483E00CC02F5F3F4FC217D307EA
:103BEC0009F685E005C085E003C085E001C084E0EE
:083BFC00DF91CF911F910895A4
:103C0400FF920F931F93CF93DF93EC01F62E8A015B
:103C1400452BE1F0FC01EF5AFF4F60830E945D1ECB
:103C240020E030E0FE01EE5AFF4FDC01CB01800FB3
:103C3400911FA21FB31F80839183A283B383CA5AA7
:103C4400DF4F088319832A833B832FC0FC01E15B88
:103C5400FF4F80818B3029F5681779F064E0CE013D
:103C64000E9414290AC0FE01ED56FF4F808188236B
:103C740021F065E0CE010E941429FE01EF5AFF4FA6
:103C84001082DE01A05BBF4F8C9132978083FC923F
:103C940070968081811109C0C05ADF4F81E088830A
:103CA40004C08BE06813E9CFDECFDF91CF911F9181
:063CB4000F91FF9008953E
:103CBA00CF93DF93CDB7DEB72897CDBFDEBF809114
:103CCA00D1389091D238A091D338B091D438898321
:103CDA009A83AB83BC838091D1389091D238A091DA
:103CEA00D338B091D4388D839E83AF83B887498106
:103CFA005A816B817C818D819E81AF81B8854817FD
:103D0A0059076A077B0729F18091D1389091D238F7
:103D1A00A091D338B091D43889839A83AB83BC837A
:103D2A008091D1389091D238A091D338B091D438BB
:103D3A008D839E83AF83B88749815A816B817C8149
:103D4A008D819E81AF81B885481759076A077B071D
:103D5A00D9F669817A818B819C812896CDBFDEBF95
:063D6A00DF91CF910895E6
:103D70000F931F93CF93DF938C018DE290E00E940D
:103D8000F114EC01892B09F445C00A831B838BE6EF
:103D900092E189879A8786EB96E28B879C8781E9F7
:103DA00090E1898F9A8F82E196E18B8F9C8F8DEFC6
:103DB00091E28F87988B83E690E2898B9A8B8CEDCA
:103DC00094E28B8B9C8B8DEB91E28D8B9E8B89EF9C
:103DD00090E28F8B988F80EC9FE18F8F98A38CE07F
:103DE00094E289A39AA385EE9AE28FA398A784E729
:103DF0009CE189A79AA781E08C838CE998E38D8365
:103E00009E83CE0105960E948D19888399838C2FFD
:103E10009D2F02C08EE092EDDF91CF911F910F9107
:023E2000089503
:103E2200CF93DF93EC0188A199A1DC015296ED9129
:103E3200FC91539760E009951CA28FAD882319F07D
:103E420018AE19AE1FAE1EAEFE01ED56FF4F108228
:103E5200E057FF4F108235961082E359F1098FEF38
:103E62009FEF8083918388A199A1DC015496ED9103
:103E7200FC91559740E060E00995FE01ED5BFF4F34
:103E8200108231961082E254FF4F10821182128208
:103E920013823497108211821282138288A199A10F
:103EA200DC015096ED91FC9151974DAD60E0099582
:103EB20060E0CE010E948128FE01E55BFF4F108287
:103EC2001182C75BDF4F18821982DF91CF9108956B
:103ED2000F931F93CF93DF93CDB7DEB76E97CDBF0E
:103EE200DEBFFE0131962EE1DF011D922A95E9F730
:103EF2006F7170E0FC0125A1213019F0E0E0F0E0E3
:103F020002C0E0E0F1E0DC0196962C91213019F03C
:103F120000E010E002C000E210E09C0127573F4F92
:103F2200D9012D913C9127703327322F2227330F4D
:103F3200AC0149575F4FDA014D915C9100245695CF
:103F420047950794569547950794542F402D242B57
:103F5200352B622B732BE62BF72BE02BF12BE9830E
:103F6200FA83AE014F5F5F4F60E00E94571A6E9670
:0E3F7200CDBFDEBFDF91CF911F910F9108955B
:103F80000F931F93CF93DF9300D0CDB7DEB78C0193
:103F900061112CC0FC0135970280F381E02D19825C
:103FA0001A82808121E030E0AE014F5F5F4F6FE207
:103FB00070E090E00E94322A292F220F220B022E5D
:103FC000000C330B8223932327C0F801359784819B
:103FD000882319F04FE752E802C04DE752E862E14A
:103FE00070E0C80105970E944A2716C0FC0135976A
:103FF0000280F381E02D83E290E089839A838081BF
:1040000021E030E0AE014F5F5F4F6FE270E090E083
:104010000E94322A9923CCF60F900F90DF91CF9116
:064020001F910F910895AD
:10402600EBE9F8E380818E7F8083809197389091C9
:104036009838019719F40E94852A02C00E947F2AA7
:10404600E8E7F8E3878D90A10197878F90A3892BE6
:1040560071F0A58DB68D809118088C93858D968DFF
:104066000196858F968F0E946D2A84E00895A8E7B1
:10407600B8E35D96ED91FC915E9780911808808378
:104086005D968D919C915E9701965D968D939C931E
:104096005E97EBE9F8E3808188608083ED91FC917F
:1040A60011971C968D919C911D970995825082308F
:1040B60020F40E94852A88E008950E9459290895CF
:1040C600AF92BF92CF92DF92FF920F931F93CF933F
:1040D600DF9300D0CDB7DEB75B016A010597DC013F
:1040E6001296ED91FC911397808121E030E0AE01AC
:1040F6004F5F5F4F6DE170E090E00E942A2A0981D0
:104106001A81B801729562956F7067277F7067276D
:10411600B62FB170FB2E6B2FC801837099270E94B2
:104126002E27F5018083C8019695879596958795E4
:104136006F2D837099270E942E27D6018C9380E0DD
:1041460090E00F900F90DF91CF911F910F91FF900C
:0A415600DF90CF90BF90AF90089566
:104160000F931F93CF93DF9300D000D0CDB7DEB76E
:104170008C01DC011296ED91FC911397808121E076
:1041800030E0AE014F5F5F4F66E870E090E00E9464
:104190002A2AD8011296ED91FC91139789819A8170
:1041A0008C7F2091EB383091EC38822B932B8B83D2
:1041B0009C83808121E030E0AE014D5F5F4F66E877
:1041C00070E090E00E94322A8091FA388C7F9091C2
:1041D000EB38892B8093FA38F801808191810E9415
:1041E000BE292496CDBFDEBFDF91CF911F910F91E5
:0241F000089530
:1041F200FF920F931F93CF93DF9300D000D0CDB7E0
:10420200DEB78C01F62EFC0135970280F381E02D9A
:10421200808121E030E0AE014F5F5F4F6CE170E0E2
:1042220090E00E942A2AFF2021F089819A818160F0
:1042320003C089819A818E7FF80135970280F381CC
:10424200E02D8B839C83808121E030E0AE014D5FC5
:104252005F4F6CE170E090E00E94322A1816190656
:1042620014F480E090E02496CDBFDEBFDF91CF91C1
:084272001F910F91FF900895C8
:10427A001F920F920FB60F9211242F933F934F93D1
:10428A005F936F937F938F939F93AF93BF93EF93B4
:10429A00FF933B9B05C0E091E138F091E238099524
:1042AA003A9B05C0E091DD38F091DE380995399BDB
:1042BA0005C0E091D738F091D8380995389B05C0E8
:1042CA00E091D538F091D63809958FEF87B9FF91EB
:1042DA00EF91BF91AF919F918F917F916F915F9174
:1042EA004F913F912F910F900FBE0F901F901895ED
:1042FA001F920F920FB60F9211242F933F934F9351
:10430A005F936F937F938F939F93AF93BF93EF9333
:10431A00FF935C9B05C0E091E338F091E43809957E
:10432A005B9B05C0E091DF38F091E03809955D9B11
:10433A0005C0E091DB38F091DC3809955A9B05C03D
:10434A00E091D938F091DA3809958FEF8BB9FF915E
:10435A00EF91BF91AF919F918F917F916F915F91F3
:10436A004F913F912F910F900FBE0F901F9018956C
:10437A00FF920F931F93CF93DF9300D000D0CDB756
:10438A00DEB78C01F62EFC0135970280F381E02D11
:10439A00808121E030E0AE014F5F5F4F69E170E05C
:1043AA0090E00E942A2A81E0F81204C089819A8149
:1043BA00826003C089819A818D7FF80135970280D6
:1043CA00F381E02D8B839C83808121E030E0AE0174
:1043DA004D5F5F4F69E170E090E00E94322A2496B7
:1043EA00CDBFDEBFDF91CF911F910F91FF9008954E
:1043FA00CF93DF9300D0CDB7DEB7633071F028F4E6
:10440A006130B9F0623031F011C0643049F0653082
:10441A0051F00CC02AE030E00EC025E030E00BC0BD
:10442A0025E130E008C025E230E005C02FE030E0A9
:10443A0002C020E030E0FC0135970280F381E02DD4
:10444A0029833A83808121E030E0AE014F5F5F4FDC
:10445A006AE170E090E00E94322A1816190614F4F4
:0E446A0080E090E00F900F90DF91CF910895C9
:104478000E94A72A8823C9F0A8E7B8E31696ED9109
:10448800FC91179752968D919C915397099582307C
:1044980019F0833021F006C00E943F2908950E9438
:1044A8009A2908950E94D5290895EBE9F8E38081B7
:1044B80088608083A8E7B8E3ED91FC9111971C967A
:1044C8008D919C911D970995833039F0843041F086
:1044D800823049F40E943F2908950E949A2908953C
:0C44E8000E94B52208950E94D529089575
:1044F4001F920F920FB60F9211242F933F934F9355
:104504005F936F937F938F939F93AF93BF93EF9337
:10451400FF938091430180FF07C0E091E938F09157
:10452400EA38309709F009958091430181FF07C06B
:10453400E091E738F091E838309709F0099583E085
:1045440080934301FF91EF91BF91AF919F918F9120
:104554007F916F915F914F913F912F910F900FBE7B
:064564000F901F90189556
:10456A000E94A72A8823C9F0A8E7B8E31696ED9116
:10457A00FC91179752968D919C9153970995823089
:10458A0019F0833021F006C00E943F2908950E9445
:10459A009A2908950E94D5290895EBE9F8E38081C4
:1045AA008E7F8083E8E7F8E3A58DB68DCD0101966D
:1045BA00858F968F8C9180931808878D90A101978B
:1045CA00878F90A3892B11F485E0089583E00895DD
:1045DA0090919B3892FD2EC0E8E7F8E3848FABE90F
:1045EA00B8E3892F887F9EE091A324EF31E0228FE0
:1045FA00338F846088608C938DEE9AE280839183F6
:10460A0014861586828393831686178684839583F8
:10461A00108A118A86839783128A138A8FEE9AE206
:10462A0080879187148A158A0E94FF290E945B2A33
:08463A0080E0089581E008957D
:104642001F93CF93DF93CDB7DEB72597CDBFDEBFE4
:10465200182F6D834B835C8329833A83812F0E94B9
:10466200ED228823D9F3BE016F5F7F4F88ED98E278
:104672000E94492A61E070E0CE0105960E94A628B8
:1046820060E070E081EF9AE20E944F2A0E94BF2A06
:104692000E94E8258130E1F32596CDBFDEBFDF9190
:0646A200CF911F91089565
:1046A8001F93CF93DF93CDB7DEB72597CDBFDEBF7E
:1046B800182F6D834B835C8329833A83812F0E9453
:1046C800ED228823D9F3BE016F5F7F4F87EE98E212
:1046D8000E94492A61E070E0CE0105960E94A62852
:1046E80060E070E081EF9AE20E944F2A0E94BF2AA0
:1046F8000E94E8258130E1F32596CDBFDEBFDF912A
:06470800CF911F910895FE
:10470E00CF93DF930E945B2A80919B3880FF07C076
:10471E000E94A72A882319F08FE0809399380E946F
:10472E00672A882319F080E1809399380E94612AC4
:10473E00882319F081E180939938C8E7D8E3E9A17D
:10474E00F0E0EE0FFF1FEC5AF74C0190F081E02DD8
:0A475E00099589A3DF91CF9108951A
:104768001F920F920FB60F9211242F933F934F93DE
:104778005F936F937F938F939F93AF93BF93EF93C1
:10478800FF93E091E538F091E638309709F0099504
:1047980081E080935301FF91EF91BF91AF919F9179
:1047A8008F917F916F915F914F913F912F910F90D2
:0847B8000FBE0F901F90189531
:1047C00080E190E00E94CF2A803A99F482E090E064
:1047D0008093EB389093EC3880EA90E08093F13846
:1047E0009093F23880E18093450488E080934604FA
:1047F000089581E090E08093EB389093EC388AE064
:1048000090E08093F1389093F23880E180934604F1
:0848100088E08093450408953F
:10481800CF93DF9300D0CDB7DEB7413019F443E032
:1048280050E002C042E050E0213009F44860FC0149
:1048380035970280F381E02D49835A83808121E0F6
:1048480030E0AE014F5F5F4F6EE270E090E00E9493
:10485800322A1816190614F480E090E00F900F9091
:06486800DF91CF910895DD
:10486E00CF93DF9300D0CDB7DEB72091F938233048
:10487E00C9F0FC019091FB389F7190669093FB38C4
:10488E000280F381E02D892F90E089839A838081C5
:10489E0021E030E0AE014F5F5F4F63E870E090E0E3
:1048AE000E94322A83E08093F9380F900F90DF91A7
:0448BE00CF910895F9
:1048C2008F929F92AF92BF92CF92DF92EF92FF921E
:1048D2004B015C010E945D1E6B017C01C501B401AC
:1048E20028EE33E040E050E00E947326C20ED31E51
:1048F200E41EF51E0E945D1E6C157D058E059F054A
:10490200C8F3FF90EF90DF90CF90BF90AF909F9051
:044912008F900895E5
:10491600CF92DF92EF92FF926115710581059105A5
:10492600D9F06B017C010E945D1EC60ED71EE81EE3
:10493600F91EC616D706E806F90638F40E945D1E6B
:10494600C616D706E806F906C8F30E945D1E6C1562
:104956007D058E059F05C8F3FF90EF90DF90CF9001
:024966000895B2
:104968000F931F93CF93DF9300D0CDB7DEB78A01A3
:10497800DC011296ED91FC911397808122E030E0E2
:10498800AE014F5F5F4F90E00E942A2A8A8190E033
:10499800982F88272981822BF8018083918380E0D2
:1049A80090E00F900F90DF91CF911F910F91089594
:1049B800CF93DF9300D0CDB7DEB70597DC01129611
:1049C800ED91FC91139781E090E0613011F080E067
:1049D80090E089839A83808121E030E0AE014F5FC7
:1049E8005F4F69E170E090E00E94322A18161906BC
:1049F80014F480E090E00F900F90DF91CF9108952C
:104A08000F931F93CF93DF9300D0CDB7DEB7FC0190
:104A180002811381CB01BA0129E130E040E050E086
:104A28000E94732629833A83F801808121E030E0CF
:104A3800AE014F5F5F4F62E870E090E00E94322A5B
:0E4A48000F900F90DF91CF911F910F91089565
:104A56000E946E2886EB9AE20E94AC2A0E948B2A5C
:104A660080E50E94DC2A0E94E0236091EAD57091DD
:104A7600EBD58091ECD59091EDD50E94DC2788ECA2
:104A860098E20E949D2A81E08093FD38529B0E9405
:0E4A9600C8280E9466290E94EF1AA895F7CF43
:104AA40040E068ED88E790E00E94BB2A40E068EDB2
:104AB4008CE790E00E94BB2A40E068ED80E790E03C
:104AC4000E94BB2A43E068ED81E690E00E94BB2A85
:104AD40040E068ED80E690E00E94BB2A40E068ED8B
:0C4AE40082E690E00E94BB2A80E008956A
:104AF0001F93CF93DF93FC01EC5BFF4F4081662354
:104B000011F0411113C0162FEC0188A199A1DC010D
:104B10005496ED91FC91559709959C0199234CF081
:104B2000CD5BDF4F188380E090E004C08EE092ED13
:0C4B300001C0932FDF91CF911F910895D9
:104B3C006115710581F090E0FC01EE0FFF1FE85844
:104B4C00F74C60837183880F991FFC01EC57F74C6D
:104B5C0040835183089590E0FC01EE0FFF1FE8584D
:104B6C00F74C2DEE3AE220833183880F991FFC011C
:0A4B7C00EC57F74C108211820895E7
:104B8600FC01DC01A05CBF4F9C91923091F417961A
:104B96008D919C91009789F0019789F000A0F1A171
:104BA600E02D0190F081E02D808981110AC08DE011
:104BB6000895913041F48DE008958DE0089582E0E6
:0A4BC600089582E0089582E008954A
:104BD000CF93DF930E94612A882341F0EBE9F8E349
:104BE00080818D7F808382E080939A3880919B388A
:104BF00081FD0EC0EBE9F8E38B7F8083C8E7D8E343
:104C00008FEF8C8F0E945B2A0E94552A8AA101C0D7
:084C100081E0DF91CF910895CE
:104C18000F931F934830510510F047E050E04115BD
:104C28005105A9F0FB01A82FB92F9A01220F331FB4
:104C3800220F331F620F731F01911191219131913E
:104C48000D931D932D933D93E617F707A9F7CA0116
:064C58001F910F91089569
:104C5E00EBE9F8E380818E7F8083A8E7B8E382E0FA
:104C6E0092968C9392971496ED91FC91159750967F
:104C7E008D919C9151970995823019F0833021F0D6
:104C8E0006C00E943F2908950E949A2908950E9405
:044C9E00D529089577
:104CA200FC0186AD811109C083AD811116C081E07E
:104CB20094AD9923A9F080E013C085AD811106C09F
:104CC20081E093AD992361F080E00AC0813039F42C
:104CD20094AD992329F080E003C080E001C080E018
:044CE2008170089540
:104CE600A1E21A2EAA1BBB1BFD010DC0AA1FBB1FEA
:104CF600EE1FFF1FA217B307E407F50720F0A21B5C
:104D0600B30BE40BF50B661F771F881F991F1A94C8
:104D160069F760957095809590959B01AC01BD01F2
:044D2600CF0108951C
:104D2A00E0E4F1E081818111FDCFE0E4F1E08FE17F
:104D3A0090E0848795871086118681E090E08287CB
:104D4A00938782E08283178281E08083818981113F
:104D5A00FDCFE0E4F1E081E0828B81E2808B80E0AC
:024D6A000895AA
:104D6C00CF93DF9300D0CDB7DEB70597DC01129659
:104D7C00ED91FC911397808121E030E0AE014F5F03
:104D8C005F4F6EE170E090E00E942A2A898182FBDD
:104D9C00882780F990E00F900F90DF91CF910895C4
:104DAC000E94732AA8E7B8E382E092968C939297BC
:104DBC001296ED91FC9113971E968D919C911F97D5
:104DCC000995823019F0833021F006C00E943F29EA
:0E4DDC0008950E949A2908950E94CA290895F8
:104DEA001F93CF93DF93EC01162FE0E0F0E182816D
:104DFA0081FDFDCF44E06DE980E090E10E94BB2A8D
:104E0A00DC5E188343E06DE980E090E10E94BB2AF2
:0A4E1A0080E0DF91CF911F91089511
:104E2400E0E1F4E0808188608193E83184E0F80770
:104E3400C9F7E0E3F4E0808188608193E83384E09B
:104E4400F807C9F7E0E5F4E0808188608193E835EC
:084E540084E0F807C9F7089596
:104E5C008230910549F08330910551F0019761F44E
:104E6C0061110CC081E0089561110AC082E00895BF
:104E7C00662341F085E0089580E0089583E008956D
:084E8C0084E0089580E0089520
:104E9400CF93DF9300D0CDB7DEB749835A83DC01CB
:104EA4001296ED91FC911397808122E030E0AE01DF
:104EB4004F5F5F4F90E00E94322A80E090E00F90B5
:084EC4000F90DF91CF910895DA
:104ECC0090919B3891FD13C0EBE9F8E392609083CD
:104EDC00882321F081E08093993803C082E080938D
:104EEC0099380E9487230E94942880E0089581E0DD
:024EFC00089517
:104EFE0080932838909329382EE1FB01AAE2B8E37B
:104F0E0001900D922A95E1F7FC01E55AFF4F808141
:104F1E009181A281B381886080839183A283B383C0
:024F2E000895E4
:104F30009091FD38992359F01092FD3830E070E0DF
:104F400090E00E94542381E08093FD3805C030E05A
:0E4F500070E090E00E94542380E090E008950D
:104F5E009091FD38992359F01092FD3830E070E0B1
:104F6E0090E00E94212381E08093FD3805C030E05F
:0E4F7E0070E090E00E94212380E090E0089512
:104F8C00E0E0F8E08EEA90E080879187158280EC73
:104F9C00868383E08783138614861686158681EBB9
:0C4FAC0098E3809350389093513808959A
:104FB800E4E0F8E360837183828393838091F73818
:104FC800811108C082E098E30E94B81E80930038DF
:0C4FD8009093013881E08093F738089531
:104FE400CF93DF93FC0126AD222369F0EC010E94EC
:104FF4005126882329F0FE01EF56FF4F10821182BB
:0C500400CE010E94111FDF91CF91089592
:10501000CF92DF92EF92FF92DC01A25BBF4FFC01C7
:10502000E05BFF4FAC917081A71303C0A9010E9400
:0C503000021EFF90EF90DF90CF900895DB
:10503C001F93CF93DF93EC01162F88A199A1DC016C
:10504C005296ED91FC9153970995009709F41CA386
:08505C00DF91CF911F9108952F
:105064008091D1389091D238A091D338B091D4386E
:105074000196A11DB11D8093D1389093D238A0938D
:08508400D338B093D43808952D
:10508C0097FB072E16F4009407D077FD09D00E94E9
:10509C005A2807FC05D03EF4909581959F4F0895B2
:0850AC00709561957F4F089596
:1050B400AA1BBB1B51E107C0AA1FBB1FA617B7073A
:1050C40010F0A61BB70B881F991F5A95A9F7809556
:0850D4009095BC01CD01089587
:1050DC000E94FE1B0E94B2290E94222A0E94522585
:1050EC000E944C290E94912A0E9495260E943229E6
:0650FC000E94C627089582
:10510200CF93DF93DC0190968D919C919197EC0166
:10511200EC8DFD8D96962C91969795964C910995CE
:06512200DF91CF9108951A
:10512800CF93DF9380919B3881FF09C0CBE9D8E307
:105138000E94082A0E948723888181FDF9CFDF9188
:04514800CF91089566
:10514C009C0190919B3893FF0BC0E8E7F8E3258F07
:10515C00368F678F70A3EBE9F8E3892F877F808305
:02516C000895A4
:10516E00FC0145A326A380A191A1DC015C96ED91E3
:10517E00FC915D9709951816190614F480E090E0DD
:02518E00089582
:105190008091FD38882359F01092FD38529904C04F
:1051A0000E94E029529BFCCF81E08093FD38089556
:1051B000FC0160817181828193810E94A62860E058
:0E51C00070E080E090E00E94492A82E00895AD
:1051CE00FC0160817181828193810E94A62860E03A
:0E51DE0070E080E090E00E94492A84E008958D
:1051EC001F920F920FB60F9211248F9381E0809330
:0E51FC0004108F910F900FBE0F901F9018950A
:10520A001F920F920FB60F9211248F9381E0809311
:0E521A008A008F910F900FBE0F901F90189575
:10522800DC01DA966C93DA9790968D919C91919720
:0E523800DC011A96ED91FC911B9709950895E3
:10524600A29FB001B39FC001A39F700D811D1124C1
:0E525600911DB29F700D811D1124911D0895B0
:1052640040E068ED80E191E00E94BB2AE0E1F1E0DA
:0A52740012821382789480E00895FE
:10527E00EBE9F8E380818160808380919438880F18
:0A528E0081608093170884E0089502
:10529800E0E1F8E010821282168281E083831582B1
:0A52A80017821482108680E008953A
:1052B2000E94852A0E94792AEBE9F8E380818D7F9A
:0A52C200808310929A3880E008956E
:1052CC008091F738882341F0E0910038F091013853
:0A52DC00808191810E943409089539
:1052E600FC01E55AFF4F4081518162817381416023
:0A52F600408351836283738308959F
:10530000FC01E55AFF4F4081518162817381426007
:0A5310004083518362837383089584
:10531A00FC01E55AFF4F40815181628173814460EB
:0A532A00408351836283738308956A
:10533400EBE9F8E380818160808380919438880F61
:085344008093170883E008952F
:10534C000E94FF29EBE9F8E380818D7F808382E066
:08535C0080939A388EE0089559
:1053640040E068ED80E890E00E94BB2AE0E8F0E0CD
:085374001186108680E0089507
:10537C00FC01E25DFE4F21E0208320E030E0A9013A
:08538C006FE10E94082808955A
:105394000E94FF29EBE9F8E380818D7F80831092DE
:0653A4009A388EE0089526
:1053AA000E94792AEBE9F8E380818D7F808310924D
:0653BA009A3880E008951E
:1053C0008091F738882331F080910038909101382E
:0653D0000E94910E0895F9
:1053D6000E942329A59F900DB49F900DA49F800D38
:0653E600911D1124089541
:1053EC00EBE9F8E380818D7F808310929A3880E01E
:0253FC00089512
:1053FE00E0E1F8E084818860848385818160858323
:02540E000895FF
:10541000E0E1F8E0858188231CF0858186FFFACFE2
:025420000895ED
:10542200FB01DC0102C001900D9241505040D8F7BF
:025432000895DB
:10543400E0E0F8E0948195FFFDCF809302080895A1
:1054440040E068ED80E590E00E94BB2A80E008958A
:10545400E0910438F0910538099580E090E00895D2
:10546400E0910638F0910738099580E090E00895BE
:10547400FC01EE59FF4F6083319721E020830895AA
:0E54840080910038909101380E94B020089568
:0C549200AB01BC0180E00E949E25089543
:0C549E00AB01BC0182E00E949E25089535
:0C54AA00E0E1F8E083818F7383830895B4
:0C54B600E0E1F8E08581806C85830895BA
:0C54C2008091150882FB882780F908956E
:0C54CE008091150883FB882780F9089561
:0C54DA00E0E1F8E08481826084830895A2
:0C54E600E0E1F8E085818860858308958E
:0C54F200E0E1F8E0848183608483089589
:0C54FE00E0E1F8E084818B7F8483089556
:0C550A00E0E1F8E084818460848308956F
:0C551600E0E4F1E082898160828B08955E
:0C552200E0E0F0E11182138280E00895C7
:0C552E00EE0FFF1F0590F491E02D099492
:0A553A008093D9389093DA38089571
:0A5544000E941A2A80E090E008950A
:0A554E008091150882958170089580
:0A5558008093E5389093E63808953B
:0A556200885D9E4FFC0160830895F0
:0A556C000E94DF2A0E94E22A08953F
:08557600FC0164BF40830895AD
:08557E0080E00E9466270895F9
:085586000E947F2A83E00895D2
:08558E000E947F2A84E00895C9
:085596000E94852A88E00895B7
:08559E009C5EFC018081089570
:0655A6000E943F29089558
:0655AC000E943F29089552
:0655B2000E949A290895F1
:0655B80080930238089503
:0655BE000E94322808954E
:0655C4000E945D1E089527
:0655CA008FEF9FEF089532
:0655D0000E94451D089534
:0455D6000C94000031
:0455DA0081E00895CF
:0455DE0085E00895C7
:0455E20083E00895C5
:0455E60032900100FE
:0455EA00AF27982728
:0255EE0008951E
:0255F00008951C
:0255F20008951A
:0255F400089518
:0255F600089516
:0255F800089514
:0255FA00089512
:0255FC00089510
:1055FE00F6293F299A29B52213203C22D62AD92AE8
:10560E00D32AD529C72AC32A5929CB2ACA292F26F4
:04561E00D626A629BD
:10562200BF380300E6D501000000000000000000C2
:05563200010000000072
:0E5637000000000200000000A22A0000000097
:0C5645002C9101042CD102003C21DCC09F
:065651000000FE382000FD
:02565700010050
:01565900FF51
:01565A00FF50
:01565B0074DA
:02000004008278
:090000000800020000C407000022
:00000001FF
