:100000000C94C0010C941F2A0C9446280C941F2AAF
:100010000C9464200C94A4200C94A1210C94DB2259
:100020000C941F2A0C941F2A0C941F2A0C941F2A2C
:100030000C941F2A0C941F2A0C941F2A0C941F2A1C
:100040000C941F2A0C941F2A0C941F2A0C941F2A0C
:100050000C941F2A0C941F2A0C941F2A0C941F2AFC
:100060000C941F2A0C941F2A0C941F2A0C941F2AEC
:100070000C941F2A0C941F2A0C943728C116D216F0
:10008000F016551755175517F01655175517F01642
:100090005517551755175517551755175517551700
:1000A00055175517551755175517551755175517F0
:1000B0004A1734173F175517551755175517551722
:1000C00055175517551755175517551755175517D0
:1000D00055175517551755175517551755175517C0
:1000E00055175517551755175517551755175517B0
:1000F00055175517551755175517551755175517A0
:100100005517FA160D175517551720172D175902A1
:100110006102E10261038F03E503EC032904AF05EB
:1001200014067F087F087F087F087F087F087F0804
:100130007F087F087F087F087F087F087F087F0887
:1001400046065006500666066D067A06C806E006A4
:100150007F087F087F080C0731077F087F087F082A
:1001600017087F087F087F087F0817087F087F0827
:100170007F087F087F087F087F087F088F079A071E
:10018000A5071708C107D407F00706087F087F08EE
:100190007F087F088A02D302DA027F087F087F087F
:1001A0007F087F087F0833087F087F087F087F0863
:1001B0007F085F086D088609FD09FD09FD09FD0935
:1001C000FD09FD09FD09FD09FD09FD096109FD099B
:1001D000FD095A09FD09FD09FD09FD09FD09FD0992
:1001E0005009FD09FD09FD09FD09FD09FD09FD098C
:1001F000FD098D09FD097F09FD09FD09FD09FD09BD
:10020000FD09FD09FD09FD09FD09FD09FD09FD09BE
:10021000FD09FD09FD09FD09FD09FD09FD09FD09AE
:10022000FD09FD09FD09FD09FD09FD09FD09FD099E
:10023000FD09FD09FD09FD09FD099409FD09FD09F7
:10024000FD09FD09FD09FD099B09D509ED09ED0928
:10025000ED09ED09ED09ED09ED09FD09ED09ED09DE
:10026000ED09ED09ED09ED09ED09ED09FD09ED09CE
:10027000FD09ED09BF09ED09ED09ED09ED09ED09EC
:10028000ED09ED09ED09ED09ED09ED09ED09ED09BE
:10029000ED09DC09ED09ED09ED09FD09ED09ED09AF
:1002A000ED09ED09ED09ED09ED09ED09ED09ED099E
:1002B000FD09ED09FD09ED09C609ED09ED09ED0995
:1002C000FD09FD09FD09FD09FD09ED09ED09ED092E
:1002D000ED09ED09ED09ED09E309C90AA30AC90A07
:1002E000C90AC90AC90AC90AC90AC90AC90AC90A76
:1002F000BB0AC90AC90AEE0A280B8E0B630BB90B9D
:10030000BC0DB90BBC0DBC0DBC0DBC0DBC0DBC0DAA
:10031000BC0D820BBC0DBC0DBC0C480CBC0D0C0CF8
:10032000C80BEF0B410D600D8B0D480C3A0DAC0D59
:10033000AC0D480CA60DA60DA60DA00DA60D3800FF
:10034000385480385438780054663878389C80386F
:100350009C38D100548A38D138EB8038EB38ED0026
:1003600054BF38ED38F88038F838FA0054C138FAFC
:1003700038FB8038FB38FC0054C338FC38FE800062
:1003800011241FBECFEFCDBFDFE3DEBFEEE3F3E00E
:1003900043E017C0B591A59135912591059107FDD1
:1003A0000CC095918591EF01F92FE82F05900D92E2
:1003B000A217B307D9F7FE0104C01D92A217B30715
:1003C000E1F7EF37F40731F70E9452240C94E8016B
:0403D000F894FFCFCF
:1003D4002F923F924F925F926F927F928F929F9251
:1003E400AF92BF92CF92DF92EF92FF920F931F933F
:1003F400CF93DF93CDB7DEB7EC97CDBFDEBF3C0123
:10040400FC01E15AFF4F81E0808372978081882349
:1004140029F0C3010E945F13811181C6230100E505
:10042400400E511C13011EE4210E311C63012DE406
:10043400C20ED11CA3014F5B5F4F4FA758ABC30142
:10044400875F9E4F89AB9AABD301A05CBF4FADAB26
:10045400BEABF301ED57FF4FE9A7FAA783010C5791
:100464001F4F0DA71EA793012F563F4F2BA33CA34D
:100474004E5A5F4F4BA75CA7845891098BAB9CAB3A
:10048400A75BBF4FAFA3B8A73896EDA3FEA3D201D5
:10049400FC90F101F0828F2D90E0FC013297E4355D
:1004A400F10508F02AC6E957FF4F0C94C62965E008
:1004B400C3010E945528C3010E9433271EC6D301DD
:1004C400DB968C91DB97823059F4DC968C918230E8
:1004D400C1F446E950E06CE1C3010E94721D0DC6EF
:1004E400813009F021C6F30184AD813039F446E945
:1004F40050E06DE1C3010E94721DFFC5823009F016
:1005040033C646E950E064E0C3010E94721DF5C59C
:10051400C3010E94161D682FC3010E945528F301D0
:10052400E95DFE4F80819181A281B381892B8A2B61
:100534008B2BB1F40E94CD1DF301E95DFE4FDC016C
:10054400CB018C599F4FAF4FBF4F80839183A283C0
:10055400B38344E650E067E4C3010E94721DCDC535
:100564000E94CD1DF301E95DFE4F80809180A28041
:10057400B380DC01CB0188199909AA09BB0952F49B
:100584000E94CD1DA401461B570B67E4C3010E94C2
:10059400721DB3C540E050E06DE0C3010E94721DBE
:1005A400ACC546E950E064E0C3010E94721DA5C5D4
:1005B40040E050E06DE0C3010E94721D9EC5D3016E
:1005C400DE968C91DE978111BEC511E0DC968C918C
:1005D400823009F010E0F30180A191A1DC011E96A4
:1005E400ED91FC911F97612F099599230CF4C1C5D6
:1005F400F30115AF21E041E061E0C3010E94F82757
:1006040099230CF496C5D30190968D919C91919762
:10061400DC015A96ED91FC915B9761E00995992371
:100624000CF487C5111105C0F30184AD813079F450
:1006340007C0113061F4D301DB968C91813039F419
:1006440061E0C3010E945F278C019923DCF061E023
:10065400C3010E949F248C01992384F0EBA5FCA57F
:100664001082D301D8961D921C92D99781E0DE9610
:100674008C93F301EB5BFF4F808365C560E0C3019E
:100684000E945F27F30180A191A1DC015A96ED91AC
:10069400FC915B9760E00995C3010E94161D682FC9
:1006A400C3010E94552811231CF040EE51E002C002
:1006B40040E050E062E0C3010E94721D1EC581E06B
:1006C400F30186AF17A2E357FF4F108211823296CF
:1006D4001082118282E090E0389780839183AFA1E9
:1006E400B8A51D921C92EDA1FEA1108211828FEF7C
:1006F4009FEFF301EB56FF4F808391833197108274
:10070400E059FF4F108211821282138244E650E0B6
:1007140066E0C3010E94721DF0C4D30194968C91CB
:10072400813009F049C0F301E357FF4F8081918183
:10073400019680839183039738F040E050E068E0AD
:10074400C3010E94721DD9C4AE014F5F5F4F8EE199
:10075400FA0111928A95E9F7ADA1BEA18D919C9100
:1007640011979C0127703327322F2227330F215BE7
:100774003F4E29833A830196877099278D939C93E2
:1007840081E090E8A0E0BFEF8B839C83AD83BE83C0
:1007940061E0C3010E94C71999233CF44DE250E083
:1007A40066E0C3010E94721DA8C44EE150E067E0F8
:1007B400C3010E94721DA1C440E050E068E0C3017F
:1007C4000E94721D9AC440E050E068E0C3010E9498
:1007D400721D93C4F301E157FF4F8081918101960B
:1007E40080839183829738F040E050E06BE0C3014E
:1007F4000E94721D82C4C3010E9419198E30B2ED89
:100804009B0731F4EBA5FCA58081882319F075C4FE
:1008140099233CF446E950E068E0C3010E94721D4C
:100824006CC4ABA1BCA11D921C92F301E157FF4F14
:100834001082118281E0EBA5FCA580832AE130E0DF
:1008440040E050E06FE1C3010E94492756C4F30120
:10085400E956FF4F4081518162817381DB01CA01F6
:10086400072E7CE1B695A795979587957A95D1F74C
:10087400702DDC01A770BB27E05AFF4FA083B18322
:10088400109709F444C13497808191818A179B079A
:1008940008F43DC1FD01EE0FFF1FEE0FFF1FE554ED
:1008A400F74C80809180A280B380950184010F2E43
:1008B400FEE13695279517950795FA95D1F7F02D12
:1008C400802F013009F478C030F0023021F0033079
:1008D40009F4A1C01CC19A013370F901EE0FFF1F86
:1008E400220F331F220F331F220F331F8F01020FDA
:1008F400131F0F8F18A394013370F901EE0FFF1F1C
:10090400220F331F220F331F220F331F8F01020FB9
:10091400131F0BAF1CAF8A019B010F2EFAE0369513
:10092400279517950795FA95D1F7F02D0FAB18AFCA
:1009340029AF3AAF98013370F901EE0FFF1F220F70
:10094400331F220F331F220F331F2E0F3F1FEBAD18
:10095400FCADE217F30708F4DAC00F8D18A1E01715
:10096400F10710F472FFD3C08111BEC0F301F395F7
:10097400072E7AE0B694A794979487947A95D1F742
:10098400702D13E0912282E3889DA001899D500D72
:10099400112460E070E04083518362837383349751
:1009A4004BAD5CAD8A0120E030E0008311832283EB
:1009B40033833C96108298C0CA0193700F2EFAEFCD
:1009C400EF2EF02DE89E8001E99E100D112483E0A6
:1009D4009822E89CF001E99CF00D11244A015B0186
:1009E400072E7AE0B694A794979487947A95D1F7D2
:1009F400702DC4019370E89E9001E99E300D11247E
:100A0400E217F30708F483C0E017F10708F06CC09D
:100A140072FD6AC07CC08A019B010F2EF9E03695F5
:100A2400279517950795FA95D1F7F02DC80197707A
:100A3400E4E1E89F8001E99F100D11240FAB18AF8A
:100A44004F77552712E3149FB001159F700D1124A1
:100A5400C4018F779927189FF001199FF00D112475
:100A6400A5019401012E11E15695479537952795D7
:100A74001A95D1F7102D2F8F38A349A35AA3C90172
:100A8400992714E6189FA001199F500D1124892C51
:100A94009A2CAB2CBB249924189DC001199D900D50
:100AA40011248FA898AC8816990688F14815590521
:100AB40070F1E617F70758F1683E03E0700738F164
:100AC400F301F395840120E030E000831183228355
:100AD40033833497AB0160E070E0408351836283D9
:100AE400738383E03C968083F301EA5BFF4F81E0EC
:100AF400119709F080E0808363E0C3010E94D91E4E
:100B0400F301E85FFE4F8081833001F518C064E093
:100B1400C3010E94D91EF301EC56FF4F808181115D
:100B240007C040E050E06CE0C3010E94721DE5C2C2
:100B340040E050E06BE0C3010E94721DDEC240E061
:100B440050E06AE0C3010E94721DD7C243E250E044
:100B54006AE0C3010E94721DD0C2D30190968D91A8
:100B64009C919197F301E450FF4F00811181228100
:100B740033815301B394F5014081518162817381C2
:100B8400DC015696ED91FC915797D301A85FBE4FB7
:100B9400EC900995F501408151816281738134960D
:100BA40080819181A281B381481B590B6A0B7B0B15
:100BB400CA01992324F488279927841B950B6FE590
:100BC40070E00E948727072E000C880B990B653074
:100BD40071058105910520F465E070E080E090E006
:100BE4000E94B223F301F39580819181A281B381A4
:100BF400349680839183A283B38366E0C3010E9409
:100C0400D91E81E0F301EC56FF4F808383E0D301CA
:100C140097968C9320E030E0A9016BE0C3010E9419
:100C240049276BC2F301EC56FF4F8081882311F1F1
:100C3400EC58FF4F80818330E9F4EBA1FCA1808163
:100C44009181029758F0ABA5BCA58C91811108C085
:100C5400F30185A1813031F06DE005C06FE103C07F
:100C640063E501C062E028EC32E340E050E0C301F8
:100C74000E944927ABA1BCA11D921C92F301E55B24
:100C8400FF4F1082118239C2C3010E94332740E012
:100C940050E062E0C3010E94721D2FC2F30186ADD1
:100CA40081112BC221E041E061E0C3010E94F827D9
:100CB40099230CF452C2D301D8961D921C92D99751
:100CC40081E0DE968C9319C246E950E06BE1C301E2
:100CD4000E94721D12C240E050E065E0C3010E9410
:100CE400C71940E050E060E2C3010E94721D05C2D2
:100CF400EFA1F8A510821182ADA1BEA11D921C9294
:100D04008FEF9FEFF301EB56FF4F80839183EBA1AD
:100D1400FCA180819181019680839183D301909677
:100D24008D919C919197DC015A96ED91FC915B9782
:100D340060E0099581E0F301EB5BFF4F8083F301F1
:100D440085A18130E1F4F395608171818281938181
:100D540020ED37E040E050E00E949A2587E190E0E2
:100D6400A0E0B0E04C015D01821A930AA40AB50A1E
:100D7400B501A40161E2C3010E94721DBEC140E03D
:100D840050E063E2C3010E94721DB7C160E0C30179
:100D94000E945F2760E0C3010E949F2421E041E09C
:100DA400F301E55DFE4F6081C3010E94F82744E929
:100DB40052E062E2C3010E94721D9FC1D30190966A
:100DC4008D919C919197DC015A96ED91FC915B97E2
:100DD40061E0099561E0C3010E949F24F30185ADA0
:100DE400811104C084AD813051F405C0813039F4DF
:100DF40083AD813021F461E0C3010E945F2761E08B
:100E0400C3010E94C22740EE51E062E0C3010E9488
:100E1400721D73C1EFA1F8A510821182ADA1BEA10C
:100E24001D921C928FEF9FEFF301EB56FF4F8083CF
:100E3400918363E0C3010E94D91EF30185A181302F
:100E440039F440E050E068E0C3010E94721D55C1CE
:100E540040E050E065E1C3010E94721D4EC1AFA1A4
:100E6400B8A51D921C92EDA1FEA1108211828FEFF4
:100E74009FEFF301EB56FF4F808391836DE0C30135
:100E84000E94D91E892B21F1ABA1BCA18D919C910B
:100E9400029780F0EBA5FCA5808181110DC0D301E0
:100EA40095968C91813051F0F2018081853141F029
:100EB4006DE007C06FE105C063E503C062E001C0F7
:100EC4006AE120E030E0A901C3010E94492715C16D
:100ED400ABA1BCA18D919C91029780F0EBA5FCA5E0
:100EE400808181110DC0D30195968C91813051F090
:100EF400F2018081853141F06DE007C06FE105C0EA
:100F040063E503C062E001C06AE12AE130E040E049
:100F140050E0C3010E944927F0C063E0C3010E946E
:100F2400D91E40E050E06DE3C3010E94721DE5C08C
:100F34006BE0C3010E94D91E4AE150E06BE3C30198
:100F44000E94721DDAC0A9A5BAA58C91882351F01C
:100F54008EE092EDEBA9FCA9808391831C92ADA550
:100F6400BEA51C92F30185A1813011F06AE101C094
:100F74006BE040E050E0C3010E94721DBEC0D3018B
:100F840094968C91813039F440E050E06EE3C301D3
:100F94000E94721DB2C040E050E06FE3C3010E94A2
:100FA400721DABC0EBA1FCA180819181029758F026
:100FB400ABA5BCA58C91811108C0F30185A181303A
:100FC40031F06DE005C06FE103C063E501C062E08C
:100FD40044E650E0C3010E94721D8FC061E0C3016A
:100FE4000E945F2766E0C3010E94D91ED301959633
:100FF4008C91813011F06AE101C06BE040E050E077
:10100400C3010E94721D79C060E0C3010E945F2782
:10101400F30185A1813011F06AE101C06BE040E089
:1010240050E0C3010E94721D68C0A9A5BAA58C91A5
:10103400882321F01C92EDA5FEA51082D30195967C
:101044008C91813039F440E050E06BE0C3010E94A0
:10105400721D53C040E050E06AE1C3010E94721D5A
:101064004CC0E9A9FAA980819181A281B381882722
:101074009927AA27B07F0097A105B045F1F540E074
:1010840050E067E0C3010E94C719ADA9BEA98C91C5
:10109400823031F4F30185A1813031F06DE007C075
:1010A400882321F06DE003C062E001C062E040E00B
:1010B40050E0C3010E94721D20C0C3010E94811E22
:1010C40060E0C3010E94552844E650E065E5C30191
:1010D4000E94721D12C0AFA5B8A98C91811103C0E2
:1010E40000E010E002C008E913E0C3010E94EA2412
:1010F400A801682FC3010E94721DF6018081882314
:1011040019F0C3010E945F13D2018C91F81639F0D3
:10111400F301EF5AFF4F8081882309F4B8C9F30122
:10112400E15AFF4F108234C0F30184AD823059F587
:10113400E8C9C3010E94161D682FC3010E945528E7
:1011440040E050E0B7CAC3010E94161D682FC301D6
:101154000E94552840EE51E0ADCA40E050E06BE1FA
:10116400C3010E94721DC9CFD6018C918823B9F2A4
:10117400C8CFC3010E94161D682FC3010E945528C1
:1011840040E050E097CAF6018081882341F2B9CF4C
:10119400EC96CDBFDEBFDF91CF911F910F91FF90F1
:1011A400EF90DF90CF90BF90AF909F908F907F9003
:0C11B4006F905F904F903F902F90089537
:1011C0002F923F924F925F926F927F928F929F9257
:1011D000AF92BF92CF92DF92EF92FF920F931F9345
:1011E000CF93DF93CDB7DEB72A97CDBFDEBF7C01AB
:1011F0008C01055A1F4F6C0121E9C20ED11C1C0144
:1012000041E4240E311C8E5B9F4F8B839C834701EE
:1012100090E5890E911CD701A55BBF4FAF83B887BE
:10122000F701E95BFF4FE987FA87B0C442FE17C0B8
:10123000D6018D919C91029710F063E501C060E2A8
:1012400040E050E0C7010E94721DF8018081918149
:10125000A281B3818B7F80839183A283B38341FE7C
:10126000D6C0D70190968D919C919197DC011696EE
:10127000ED91FC9117970995892B09F46EC021E037
:10128000F1012083D401EC918E2F90E0FC01349782
:10129000EA34F10508F0B1C0E552FF4F0C94C629BD
:1012A00021E0F501208340E050E06AE1C7010E949F
:1012B000721DA3C040E050E062E1C7010E94721DB0
:1012C0009CC0AF81B8858D919C91892B69F4E9858B
:1012D000FA8580819181019749F4AD81BE818C911D
:1012E000823031F468E405C060E103C060E101C010
:1012F00060E140E050E0C7010E94721D7EC040E006
:1013000050E065E2C7010E94721D77C040E050E0E6
:1013100065E0C7010E94721D70C044E650E065E0C0
:10132000C7010E94721D69C040E050E065E4C7013A
:101330000E94721D62C0F70183AD8350833008F0B4
:101340006BC484AD8350833008F457C040E050E054
:1013500060E1C7010E94721D50C0D1011C92EB8157
:10136000FC811082D401EC918E2F90E0FC013E971D
:10137000E834F10590F5EB5DFE4F0C94C62940E092
:1013800050E064E2C7010E94721D37C0F70183ADCF
:10139000823009F048C484AD823079F140E050E0F9
:1013A00066E4C7010E94721D28C040E050E06DE075
:1013B000C7010E94721D21C040E050E063E3C701F5
:1013C0000E94721D1AC0C7010E94EA2440E050E04A
:1013D000682FC7010E94721D10C0D70195968C918D
:1013E000959781110AC0DE968C91882331F040E0F8
:1013F00050E06DE0C7010E94721DF801808191816B
:10140000A281B3818D7F80839183A283B38340FEC9
:1014100028C065E070E080E090E00E94B223D70130
:1014200090968D919C919197DC011C96ED91FC9189
:101430001D97AE014F5F5F4FBE016E5F7F4F0995F5
:10144000892B29F449816A81C7010E94A216F801FB
:1014500080819181A281B3818E7F80839183A283D9
:10146000B38343FE9CC3A0902838B0902938D5019F
:10147000DE968C91DE97882309F47EC380912A380A
:1014800090912B38FC01EF71FF279C01232F33270C
:10149000269527703327AB56BF4F4D915C9124178B
:1014A000350719F4ED3009F067C3D501AB56BF4FCE
:1014B0002D933C939C0136952795329522952F705C
:1014C00023273F702327B1E02B27217031E0D5017E
:1014D00096964C91413009F030E0231739F040E006
:1014E00050E063E5C5010E94721D46C399230CF0CC
:1014F00056C080912C3890912D38992364F06AE27F
:1015000070E080E090E00E94B223F501E35BFF4FC2
:1015100083E0808331C391704B9760F06AE270E0A2
:1015200080E090E00E94B223F501E35BFF4F83E08F
:10153000808322C33197EE30F10508F01DC3E359D3
:10154000FE4F0C94C629809131388E7039F040E0FE
:1015500050E061E5C5010E94721D0EC3F50185A131
:10156000813011F06AE101C06BE040E050E0C5015C
:101570000E94721D01C3D50195968C91813011F0A6
:101580006AE101C06BE040E050E0C5010E94721DBD
:10159000F3C2F501E35BFF4F83E08083EDC29C0162
:1015A000232F332722952F702770332721153105DC
:1015B00009F4E5C00024880F991F001C880F991FAB
:1015C000001C892F902D837099273197EF30F105FA
:1015D00008F0D2C2E558FE4F0C94C629F50145A18A
:1015E0004111CAC2ACE2B8E3E556FF4FA901440F6E
:1015F000551F440F551F45565F4F4A0D5B1D4D90BB
:101600005D906D907D9041925192619271924E17D2
:101610005F07A9F7F501E954FF4F20833183009755
:1016200009F4AAC28230910518F4F097808391835F
:10163000F501E957FF4F808191818093483890935D
:10164000493840E050E066E1C5010E94721D94C235
:10165000D50195964C91413019F42130310531F086
:10166000F501E35BFF4F81E0808386C2009731F490
:10167000F501E35BFF4F81E080837EC282309105FC
:1016800028F4F501E957FF4F80839183F501E9576D
:10169000FF4F8081918180934838909349387096AC
:1016A00080912C3890912D38A0912E38B0912F3800
:1016B00080839183A283B38340E050E069E0C50159
:1016C0000E94721D59C2ACE2B8E3F501E754FF4F26
:1016D000C901880F991F880F991F87549F4F8A0D42
:1016E0009B1D4D915D916D917D91419351936193BE
:1016F0007193E817F907A9F7F501EB52FF4F208323
:1017000031833AC2F501E957FF4F808191810297F9
:1017100008F432C2FA9783E080832EC2F501E05BC1
:10172000FF4F80818B3019F08A3109F025C2F50115
:10173000F39580819181A281B38188389341A1057D
:10174000B10509F019C2F501E75FFE4F80912C3811
:1017500090912D38A0912E38B0912F3880839183AD
:10176000A283B38340E050E06EE4C5010E94721D85
:1017700003C2F501E35BFF4F83E08083FDC1319736
:10178000E531F10508F0E8C1E657FE4F0C94C62993
:10179000F501E05BFF4F80818B3019F08A3199F0C1
:1017A00018C0F501ED56FF4F8081882329F080E2B3
:1017B00090E034978083918340E050E068E0C50179
:1017C0000E94721DD9C1F501E35BFF4F85E0808364
:1017D000D3C1F501E35BFF4F81E08083CDC1F5010B
:1017E000E05BFF4F80818B3059F08A3149F08830BF
:1017F00069F440E050E067E2C5010E94721DBCC17F
:10180000F501E35BFF4F84E08083B6C1F501E35B44
:10181000FF4F81E08083B0C1F501E05BFF4F808125
:10182000843309F118F4883131F0A6C1863311F1FF
:101830008E3339F1A1C1F501EF5BFF4F8081882321
:1018400059F0ED5AFF4F81E0808340E050E06AE1BB
:10185000C5010E94721D90C140E050E069E1C501E0
:101860000E94721D89C140E050E065E3C5010E94FD
:10187000721D82C140E050E067E3C5010E94721D05
:101880007BC140E050E060E4C5010E94721D74C15C
:10189000F501E05BFF4F8081893209F443C028F4F1
:1018A000863151F08731B9F067C18E3209F448C0F2
:1018B0008A3309F453C060C1F501EC56FF4F8081B3
:1018C000811102C065E101C06AE140E050E0C5015C
:1018D0000E94721D51C1F501E75EFE4FD501B3951F
:1018E0008D919D910D90BC91A02D80839183A283B9
:1018F000B3833496D501A450BF4F8D919D910D9027
:10190000BC91A02D80839183A283B38337968EE010
:1019100092ED8083918340E050E06AE1C5010E942E
:10192000721D2AC1F501EB57FF4F8EE092ED8083C7
:10193000918340E050E06BE2C5010E94721D1CC122
:10194000F501EB57FF4F8EE092ED8083918340E0ED
:1019500050E060E3C5010E94721D0EC1F501EB5716
:10196000FF4F8EE092ED8083918340E050E06CE386
:10197000C5010E94721D00C1F501E05BFF4F80812F
:10198000873209F441C028F4863169F08731B1F01B
:101990006AC08E3209F459C08A3309F45DC08932B5
:1019A00009F061C04BC0F501EE5DFE4F108240E0D2
:1019B00050E068E1C5010E94721DDEC0F501EE5DD8
:1019C000FE4F81E08083B297D501A75EBE4F8D9117
:1019D0009D910D90BC91A02D80839183A283B383B0
:1019E0003497D501A35EBE4F8D919D910D90BC9112
:1019F000A02D80839183A283B38340E050E068E10F
:101A0000C5010E94721DB8C081E090E0F501E75762
:101A1000FF4F808391838FEF9FEF3C96808391836C
:101A2000D50195968C91813011F065E101C068E097
:101A300040E050E0C5010E94721D9EC040E050E0B1
:101A40006CE2C5010E94721D97C040E050E061E366
:101A5000C5010E94721D90C040E050E06DE3C501D9
:101A60000E94721D89C040E050E067E2C5010E94FB
:101A7000721D82C040E050E066E2C5010E94721D06
:101A80007BC0F501E05CFF4F8081823021F03D9604
:101A900081E0808371C0F501E05BFF4F80818B3076
:101AA00011F08A3139F440E050E068E2C5010E944B
:101AB000721D62C0F501E35BFF4F82E080835CC072
:101AC000F501E05CFF4F8081823081F0E95BFF4FE0
:101AD00080819181029720F4FA9781E080834CC045
:101AE000F501E35BFF4F83E0808346C0F501E05BD7
:101AF000FF4F80818B3011F08A3139F440E050E0A3
:101B00006DE2C5010E94721D37C0F501E35BFF4F16
:101B100082E0808331C0F501E05BFF4F80818B3034
:101B200011F08A3139F440E050E069E3C5010E94C8
:101B3000721D22C0F501E35BFF4F82E080831CC071
:101B4000F501E35BFF4F86E0808316C0F501E35BA0
:101B5000FF4F83E0808310C0F501E957FF4F80817C
:101B60009181029720F4FA9781E0808305C0F50106
:101B7000E35BFF4F83E08083F80180819181A28144
:101B8000B381877F80839183A283B383C701805C05
:101B90009F4F8D839E83570194E9A90EB11CD801F4
:101BA0004D905D906D907C904114510461047104DE
:101BB00009F03CCBF701E05AFF4F8081882339F0D0
:101BC000C7010E94EA01F701E05AFF4F1082F701B6
:101BD000E35BFF4F8081882319F081E07396808357
:101BE000F701EF5AFF4F8081882311F10E94CD1D2C
:101BF000F701EE5AFF4F0081118122813381601776
:101C0000710782079307A0F0319740E050E06081B0
:101C1000C7010E94721D0CC0F70184AD8350833050
:101C200008F0EBCB93CB84AD823009F0E6CBB6CB9A
:101C30002A96CDBFDEBFDF91CF911F910F91FF900C
:101C4000EF90DF90CF90BF90AF909F908F907F905C
:0C1C50006F905F904F903F902F90089590
:101C5C00CF92DF92EF92FF920F931F93CF93DF936C
:101C6C00CDB7DEB7AA97CDBFDEBF8C01AE014F5FFB
:101C7C005F4F60E170E00E94DB23898180FF05C02B
:101C8C00D8018D919C910E94B528898181FF05C056
:101C9C00F801808191810E94C22889819A8191FFEB
:101CAC002CC0D8011296ED91FC911397808121E004
:101CBC0030E0AE014D5F5F4F6FE170E090E00E944D
:101CCC006029D8011296ED91FC9113978B819C8120
:101CDC008FA398A7808121E030E0AE01495D5F4F72
:101CEC006FE170E090E00E9468298B8187FF05C04E
:101CFC00F801808191810E941C2A89819A81992303
:101D0C000CF047C0D8011296ED91FC91139780818D
:101D1C0021E030E0AE014F5D5F4F6BE870E090E08A
:101D2C000E946029D8011296ED91FC91139789A11C
:101D3C009AA18DA39EA3808121E030E0AE014B5D82
:101D4C005F4F6BE870E090E00E94682989A180FFEA
:101D5C0020C0D8011296ED91FC911397808121E05F
:101D6C0030E0AE014D5F5F4F6DE870E090E00E9497
:101D7C0060298B8187FF07C061E0F8018081918128
:101D8C000E94E52906C060E0D8018D919C910E94CB
:101D9C00E52989819A8190FF08C0C8010E94F51A33
:101DAC00F801808191810E94CF2849815A81CA0112
:101DBC008B7F009731F0AC0160E170E0C8010E94AC
:101DCC007126898182FFAFC0D8011296ED91FC91EA
:101DDC001397808120E230E048E058E360E370E044
:101DEC0090E00E946029D0900838B2E0BD1540F018
:101DFC0044E050E060E170E0C8010E9471261BC114
:101E0C00E8E0F8E3C180E380F12CFE2CEE24828123
:101E1C00E80EF11CEB82FC824D2D50E04350510931
:101E2C006CE078E3CE0105960E944729E1E0CE12E2
:101E3C0031C08D899E89AF89B88D80769927AA2764
:101E4C00BB27689414F8B695A79597958795169423
:101E5C00D1F781309105A105B10509F0CCC0EFEBAC
:101E6C00F8E38CE291E9A1E0B4E080839183A28352
:101E7C00B3838CE291EDA2E0B0E084839583A683DA
:101E8C00B7838CE391E2ACEDB0EC80879187A287AD
:101E9C00B38742C0F3E0FD15B8F5C7018F719927E0
:101EAC00833091F58D819E81AF81B88588279927E4
:101EBC00AA27B07F0097A105B04831F5D80112963A
:101ECC00ED91FC911397808121E030E0AE014F5DE4
:101EDC005F4F69E170E090E00E946029D801129692
:101EEC00ED91FC91139789A19AA182608BA39CA37D
:101EFC00808121E030E0AE014D5D5F4F69E170E023
:101F0C0090E00E94682908C0BE016D5F7F4FF80108
:101F1C00808191810E94C02644E050E060E170E035
:101F2C00C8010E947126898183FF49C0D80112968D
:101F3C00ED91FC911397808121E030E0AE01475D7B
:101F4C005F4F69E170E090E00E946029D801129621
:101F5C00ED91FC91139789A59AA58D7F89A39AA3DE
:101F6C00808121E030E0AE014F5D5F4F69E170E0B0
:101F7C0090E00E946829F8018481882329F084E08C
:101F8C0090E089A79AA702C019A61AA6D8011296A2
:101F9C00ED91FC91139789A59AA58B839C838081E5
:101FAC0021E030E0AE014D5F5F4F64E170E090E006
:101FBC000E946829F801808191810E94CF28898133
:101FCC0086FF07C060E0D8018D919C910E9470291A
:101FDC0032C085FF07C061E0F801808191810E94C9
:101FEC00702929C084FF27C062E0D8018D919C9193
:101FFC000E94702920C00297A105B10509F08CCF71
:10200C00EFEBF8E38CE291E9A1E0B4E080839183FB
:10201C00A283B3838CE291EDA2E0B0E0848395833C
:10202C00A683B7838CE391E2ACEDB0EC808791870B
:10203C00A287B38771CF81E0AA96CDBFDEBFDF91B7
:10204C00CF911F910F91FF90EF90DF90CF9008955B
:10205C008F929F92BF92CF92DF92EF92FF920F934B
:10206C001F93CF93DF93CDB7DEB76A97CDBFDEBF9B
:10207C006C01162FB42E7C0185E0E81AF108AE0134
:10208C004D5F5F4F62E170E0C7010E94DB2340E0CF
:10209C0050E062E170E0C7010E947126D7011296F0
:1020AC00ED91FC911397808121E030E0AE014F5F00
:1020BC005F4F6CE170E090E00E946029D7011296AE
:1020CC00ED91FC91139789819A818062898F9A8F07
:1020DC00808121E030E0AE01475E5F4F6CE170E043
:1020EC0090E00E94682911110EC1EFEBF8E38CE22D
:1020FC0091E9A1E0B4E080839183A283B3838CE265
:10210C0091EDA2E0B0E084839583A683B7838CE342
:10211C0091E2ACEDB0EC80879187A287B387F70191
:10212C000280F381E02D808121E030E0AE014F5F31
:10213C005F4F6EE170E090E00E946029898184FF1E
:10214C0087C0D7011296ED91FC9113978AE490E029
:10215C008F87988B808121E030E0AE01415F5F4F2B
:10216C006AE770E090E00E946829D7011296ED9121
:10217C00FC91139781E090E0898B9A8B808121E010
:10218C0030E0AE014F5E5F4F6BE770E090E00E9475
:10219C006829D7011296ED91FC91139788E890E08D
:1021AC008B8B9C8B808121E030E0AE014D5E5F4FCC
:1021BC0063E270E090E00E9468298C016AEF70E0A5
:1021CC0080E090E00E94B223D7011296ED91FC9131
:1021DC00139786E690E08D8B9E8B808121E030E01A
:1021EC00AE014B5E5F4F63E270E090E00E946829A5
:1021FC00082B192BD7011296ED91FC911397808126
:10220C0021E030E0AE014F5F5F4F6CE170E090E099
:10221C000E946029D7011296ED91FC911397898148
:10222C009A8184608F8B988F808121E030E0AE01A1
:10223C00495E5F4F6CE170E090E00E946829082BCA
:10224C00192B64E670E080E090E00E94B22308C095
:10225C006AEF70E080E090E00E94B22300E010E0B2
:10226C004601B5E08B1A9108D4011296ED91FC91C0
:10227C001397808121E030E0AE014F5F5F4F6CE13E
:10228C0070E090E00E946029D4011296ED91FC91CF
:10229C00139789819A818B7E8D879E87808121E01F
:1022AC0030E0AE01435F5F4F6CE170E090E00E9464
:1022BC006829802B912B99230CF495C0BB20B9F085
:1022CC00F60135970280F381E02D85E590E08D8352
:1022DC009E83808121E030E0AE014B5F5F4F63E273
:1022EC0070E090E00E94682999230CF47CC04B812B
:1022FC005C8162E170E0C7010E94712680E090E091
:10230C0072C0C80170C04601B5E08B1A9108D401A7
:10231C001296ED91FC911397808121E030E0AE0193
:10232C004F5F5F4F6CE170E090E00E946029D40138
:10233C001296ED91FC91139789819A818B7E806125
:10234C008F839887808121E030E0AE01495F5F4F39
:10235C006CE170E090E00E9468298C01D401129627
:10236C00ED91FC9113978091FA3890E08B7F8987DF
:10237C009A87808121E030E0AE01475F5F4F66E8CD
:10238C0070E090E00E946829082B192B48EB5BE069
:10239C0060E070E0C7010E94541C40E85CE060E023
:1023AC0070E0C7010E942B2448E853E160E070E024
:1023BC00C7010E945E23D4011296ED91FC911397F4
:1023CC0087E790E08B879C87808121E030E0AE012D
:1023DC00455F5F4F63E270E090E00E946829112333
:1023EC000CF06CCF8ECF6A96CDBFDEBFDF91CF9154
:1023FC001F910F91FF90EF90DF90CF90BF909F9027
:04240C008F90089510
:102410004F925F926F927F928F929F92AF92BF92F4
:10242000EF92FF920F931F93CF93DF93CDB7DEB759
:102430006297CDBFDEBF7C010E94CD1D4B015C01C8
:1024400020ED820E27E0921EA11CB11C87010550D1
:1024500011091DC0D8011296ED91FC91139780814E
:1024600021E030E0AE014F5F5F4F6EE170E090E041
:102470000E946029898186FF13C020E23EE440E08B
:1024800050E060E177E280E090E00E9488230E94C3
:10249000CD1D24013501461A570A680A790AD2F679
:1024A0000E94CD1D861A970AA80AB90A0AF4F3C039
:1024B000F70135978481882329F084E090E08983AF
:1024C0009A8302C019821A82F70135970280F3813C
:1024D000E02D89819A81898B9A8B808121E030E07F
:1024E000AE014F5E5F4F64E170E090E00E946829AA
:1024F00099230CF4D2C0F70135970280F381E02DC7
:1025000083E390E08F87988B808121E030E0AE01FB
:10251000415F5F4F63E270E090E00E946829992379
:102520000CF4BBC025E0E21AF10840E050E062E1A3
:1025300070E0C7010E947126D7011296ED91FC91BF
:102540001397808121E030E0AE014F5F5F4F6CE177
:1025500070E090E00E946029D7011296ED91FC9105
:10256000139789819A818F7B8B839C83808121E063
:1025700030E0AE014D5F5F4F6CE170E090E00E9493
:1025800068298FEF90E089839A83D7011296ED91A5
:10259000FC91139781E890E08D839E83808121E0F8
:1025A00030E0AE014B5F5F4F6AE870E090E00E9460
:1025B00068298091EB38837080648093FA38D70162
:1025C0001296ED91FC9113971F821886808121E06D
:1025D00030E0AE01495F5F4F67E870E090E00E9435
:1025E0006829D7011296ED91FC91139785E090E050
:1025F00089879A87808121E030E0AE01475F5F4F95
:1026000061E870E090E00E94682987E78093FB38DA
:10261000D7011296ED91FC91139787E790E08B8795
:102620009C87808121E030E0AE01455F5F4F63E829
:1026300070E090E00E94682940E050E064E770E0BC
:10264000C7010E947126D7011296ED91FC91139754
:1026500083E090E08D879E87808121E030E0AE01AD
:10266000435F5F4F68E870E090E00E9468298DE763
:1026700092E889839A83F7018481882321F08FE788
:1026800092E889839A8349815A8162E170E0C701A7
:102690000E94712602C08EE092ED6296CDBFDEBF31
:1026A000DF91CF911F910F91FF90EF90BF90AF906E
:0E26B0009F908F907F906F905F904F90089555
:1026BE002F923F924F925F926F927F928F929F9244
:1026CE00AF92BF92CF92DF92EF92FF920F931F9332
:1026DE00CF93DF93CDB7DEB76E97CDBFDEBF7C0154
:1026EE008C01035B1F4F0F2EFEE12F2EF02DCE011E
:1026FE0001966C01470197E8890E911C5701A9E8D4
:10270E00AA0EB11C6894662462F8772477F8270124
:10271E00BAED4B1ABEEF5B0A33243A94F80180816E
:10272E0010828330C1F028F4813081F0823049F07C
:10273E00CDC0853009F47EC098F0863009F47EC095
:10274E00C5C06CE0C7010E94D91EC0C064E0C701BD
:10275E000E94D91EBBC060E1C7010E94D91EB6C03F
:10276E00D601E22D1D92EA95E9F7D4018D919C9147
:10277E008230910568F5F70125A1213019F044E06A
:10278E0050E002C044E051E0D70196962C912130E2
:10279E0019F060E070E002C060E270E0F5012081A7
:1027AE00318127703327322F2227330F002496953D
:1027BE0087950794969587950794982F802D282BAB
:1027CE00392B422B532B462B572B49835A832CC024
:1027DE00D70195962C91213019F020E130E002C0FE
:1027EE0020E131E0F70146A1413019F040E050E020
:1027FE0002C040E250E0D5016D917C916770772761
:10280E00762F6627770F00249695879507949695D1
:10281E0087950794982F802D862B972B822B932BA1
:10282E00842B952B89839A83A60160E0C7010E94B1
:10283E00C7194CC0C7010E94191948C0F601822D54
:10284E0011928A95E9F7D70195968C91813019F0FE
:10285E004CE050E002C04CE051E0F70186A181301F
:10286E0019F060E070E002C060E270E0D4018D917A
:10287E009C91002496958795079496958795079435
:10288E00982F802DFC01F06AD5018D919C91877057
:10289E0099279C01322F2227330FCF01822B932BA6
:1028AE00842B952B862B972B89839A836B827C8224
:1028BE00F2018081880F880F880F88873F823E82C1
:1028CE003D82A60160E0C7010E94C719D8018C9114
:1028DE00811124CFF701EF5AFF4F808181111082B1
:1028EE0080E06E96CDBFDEBFDF91CF911F910F912D
:1028FE00FF90EF90DF90CF90BF90AF909F908F9012
:0E290E007F906F905F904F903F902F900895B4
:10291C000F931F93CF93DF938230910510F482E0D5
:10292C0090E0E0914C38F0914D3820E030E0A0E0A0
:10293C00B0E0309719F14081518102811381481721
:10294C005907C8F08417950769F4109731F012965F
:10295C000C93129713961C9327C000934C3810932A
:10296C004D3822C02115310519F04217530718F4C0
:10297C009A01BD01EF01DF01F801DBCF2115310513
:10298C00F9F0281B390B2430310580F48A819B81A6
:10299C006115710521F0FB018283938304C0809340
:1029AC004C3890934D38FE01329644C0FE01E20F34
:1029BC00F31F8193919322503109288339833AC0B4
:1029CC0020914A3830914B38232B41F42091CD384B
:1029DC003091CE3820934A3830934B382091CB38F5
:1029EC003091CC382115310541F42DB73EB74091CB
:1029FC00CF385091D038241B350BE0914A38F091E8
:102A0C004B38E217F307A0F42E1B3F0B281739079E
:102A1C0078F0AC014E5F5F4F2417350748F04E0F2E
:102A2C005F1F40934A3850934B388193919302C067
:102A3C00E0E0F0E0CF01DF91CF911F910F9108956D
:102A4C00CF93DF93009709F481C0FC013297128277
:102A5C001382A0914C38B0914D38109781F420819D
:102A6C003181820F931F20914A3830914B382817AF
:102A7C00390751F5E0934A38F0934B3867C0ED01B4
:102A8C0020E030E0CE17DF0740F44A815B819E01E5
:102A9C0041155105F1F0EA01F5CFC283D383408192
:102AAC005181840F951FC817D90759F488819981D2
:102ABC00840F951F0296808391838A819B818283E8
:102ACC0093832115310529F4E0934C38F0934D385C
:102ADC003DC0E901EA83FB8349915991C40FD51F8D
:102AEC00EC17FD0761F480819181840F951F02968C
:102AFC00E90188839983828193818A839B83E0E0B7
:102B0C00F0E012968D919C911397009719F0FD01AE
:102B1C00DC01F7CF8D919C9111979D012E5F3F4F5A
:102B2C00820F931F20914A3830914B382817390760
:102B3C0069F4309729F410924C3810924D3802C039
:102B4C0012821382A0934A38B0934B38DF91CF9105
:022B5C000895DA
:102B5E003F924F925F926F927F928F929F92AF921F
:102B6E00BF92CF92DF92EF92FF920F931F93CF936C
:102B7E00DF93CDB7DEB72A97CDBFDEBF6C014A011A
:102B8E005B01280139013E2C7C0185E0E81AF10831
:102B9E00CB01BA012AE030E040E050E00E949A25D5
:102BAE008901065F1F4FA0E3B1E0A50194010E94C9
:102BBE00212920EA36E841E050E00E949A25021BC6
:102BCE00130BD7011296ED91FC911397C80199271B
:102BDE008F839887808121E030E0AE01495F5F4F9F
:102BEE006AE770E090E00E946829D7011296ED9195
:102BFE00FC91139719871A86808121E030E0AE018F
:102C0E00475F5F4F6BE770E090E00E9468293110DC
:102C1E000EC0B301A20148535F4F6F4F7F4FC701E4
:102C2E000E942B248091F838811133C04BC0B30120
:102C3E00A201475E5F4F6F4F7F4FC7010E942B244B
:102C4E008091F8383816F1F1B3E03B1222C0F6014C
:102C5E0035970280F381E02D8091FA38846090E000
:102C6E008D839E83808121E030E0AE014B5F5F4F0C
:102C7E0066E870E090E00E94682908EA11E620E01C
:102C8E0030E046E85BE060E070E0C7010E94831729
:102C9E0019C0F60135970280F381E02D8091FA3844
:102CAE0090E08B7F8B839C83808121E030E0AE01AE
:102CBE004D5F5F4F66E870E090E00E946829C701A3
:102CCE000E94F51A3092F838F60135970280F3819A
:102CDE00E02D88E890E089839A83808121E030E0BE
:102CEE00AE014F5F5F4F63E270E090E00E94682993
:102CFE00082F192FB501A401C7010E945E23802F52
:102D0E00912F1816190614F480E090E02A96CDBF84
:102D1E00DEBFDF91CF911F910F91FF90EF90DF906B
:102D2E00CF90BF90AF909F908F907F906F905F905D
:062D3E004F903F90089544
:102D4400EF92FF920F931F93CF93DF93EC01162F13
:102D5400042FFBACECAC6BAF4CAF0E947825FE01AA
:102D6400E05BFF4FE0814E2F50E0FA013297E934E7
:102D7400F10508F098C0E25CFF4F0C94C6291230AC
:102D840041F0113009F0A9C0013019F0023009F006
:102D9400B1C040E050E063E0CE010E94721DAAC0C1
:102DA400811109C0113019F401110CC004C00130A3
:102DB40049F4111107C040E050E062E0CE010E94E6
:102DC400721D98C0F11203C0E01609F493C040E0EC
:102DD40050E063E0CE010E94721D8CC0882309F488
:102DE40089C040E050E062E0CE010E94721D82C0C2
:102DF400FE01EF5BFF4F808181117CC0123009F02E
:102E04006FC0023009F476C040E050E066E4CE01C1
:102E14000E94721D6FC0FE01EF5BFF4F8081811124
:102E240006C0123009F05FC0023009F063C040E010
:102E340050E065E4CE010E94721D5CC0123009F0BE
:102E440056C0023009F456C040E050E06AE4CE01B6
:102E54000E94721D4FC040E050E069E4CE010E9420
:102E6400721D48C0112311F0011144C040E050E02C
:102E74006EE1CE010E94721D3DC01130D9F50130C2
:102E8400C9F540E050E06DE1CE010E94721D32C0F0
:102E9400112311F001112EC040E050E06BE1CE018E
:102EA4000E94721D27C0882329F1FE01E05CFF4FB8
:102EB4008081823029F48DA1813031F06DE007C02A
:102EC400882321F06DE003C062E001C062E040E0CD
:102ED40050E0CE010E94721D0DC0023059F459CF4A
:102EE400023041F491CF023009F0A1CF03C0023087
:102EF40009F4AACFDF91CF911F910F91FF90EF902A
:022F040008952E
:102F06004F925F926F927F928F929F92AF92BF92F3
:102F1600EF92FF920F931F93CF93DF93CDB7DEB758
:102F26006297CDBFDEBF7C010F87188B298B3A8B4A
:102F36000F2EF9E14F2E512C612C712CF02DCB0167
:102F4600BA01A30192010E949A2549015A016F858F
:102F5600788989899A89A30192010E949A25290173
:102F66003A01D7011296ED91FC911397C901992761
:102F76008D839E83808121E030E0AE014B5F5F4F01
:102F860066E770E090E00E946829D7011296ED91FD
:102F9600FC911397452C5524B3E04B2255244F82C0
:102FA6005886808121E030E0AE01495F5F4F67E7D8
:102FB60070E090E00E946829D7011296ED91FC918D
:102FC6001397C401992789879A87808121E030E089
:102FD600AE01475F5F4F68E770E090E00E946829A6
:102FE600D7011296ED91FC911397892C9924B3E0A1
:102FF6008B2299248B869C86808121E030E0AE016D
:10300600455F5F4F69E770E090E00E946829AE0176
:103016004F5F5F4F62E170E0C7010E94DB23498189
:103026005A814068516062E170E0C7010E947126D2
:10303600D7011296ED91FC911397808121E030E043
:10304600AE014D5F5F4F6CE170E090E00E94602939
:10305600D7011296ED91FC9113978B819C818F7D00
:103066008D879E87808121E030E0AE01435F5F4F10
:103076006CE170E090E00E9468296296CDBFDEBFE9
:10308600DF91CF911F910F91FF90EF90BF90AF907E
:0E3096009F908F907F906F905F904F90089565
:1030A400CF92DF92EF92FF920F931F93CF93DF9310
:1030B400FC01892B09F492C086819781892B09F43C
:1030C40090C082859385892B09F48EC0848595856B
:1030D400892B09F48CC086859785892B09F48AC0CD
:1030E40082899389892B09F488C084899589892BDD
:1030F40009F486C0828D938D892B09F484C0848D54
:10310400958D892B09F482C084A195A1892B09F49A
:1031140080C08F018CE291E00E948E14EC01892B17
:1031240009F47AC08091FC3891E0980F9093FC38B0
:10313400888308A319A3FE01EF5AFF4F1082329728
:103144001082319610821BAE1CAE6E0180E4C80E54
:10315400D11CF601108281E08DA38EA38CA3F8010B
:10316400E080F180F7014281538160817181CE0159
:1031740089529F4F0E943325FE01ED50FF4F8083FB
:103184009183F701808990E089879A8786858B836C
:1031940097859C83E8A1F9A10190F081E02D9289A3
:1031A400FE01E55DFE4F9083F801228133812A8B75
:1031B4003B8B20E231E02D833E8320E033E02F83FC
:1031C40038879E01285D3F4F2EAB3FABF6018083CD
:1031D400CE010E94B51C8C2F9D2F20C08EE092ED55
:1031E4001DC08EE092ED1AC08EE092ED17C08EE005
:1031F40092ED14C08EE092ED11C08EE092ED0EC0FF
:103204008EE092ED0BC08EE092ED08C08EE092ED60
:1032140005C08EE092ED02C08EE092EDDF91CF9179
:0E3224001F910F91FF90EF90DF90CF900895D3
:103232000F931F93CF93DF93CDB7DEB76E97CDBFBA
:10324200DEBFFE0131962EE1DF011D922A95E9F7DC
:10325200FC01ED50FF4F208131812115310591F59F
:10326200FC0145A1413019F064E070E002C064E065
:1032720071E0DC0196964C91413011F420E230E08D
:10328200FC01E757FF4F4081518147705527FA01F2
:10329200FE2FEE27FF0FDC01A957BF4F4D915C9126
:1032A2000024569547950794569547950794542FB1
:1032B200402D4E2B5F2B462B572B242B352B29834E
:1032C2003A8319C0FC0145A1413019F0A1E0B0E0F8
:1032D20002C0A1E0B1E0FC0146A1413099F415C061
:1032E20041915191619171914D935D936D937D9354
:1032F200E217F307A9F7AE014F5F5F4F60E00E944C
:10330200C7193CC000E010E002C000E210E0AC01CE
:1033120047575F4FFA014081518147705527542F1B
:103322004427550FB90167707727762F6627729564
:10333200707F462B572BBC0169577F4FFB01608181
:103342007181002476956795079476956795079421
:10335200762F602D462B572B4A2B5B2BF801E42B43
:10336200F52BE983FA83EFEBF8E3DE011396220FE4
:10337200331F220F331F2154374CB2CF6E96CDBF6D
:0C338200DEBFDF91CF911F910F910895E5
:10338E00BF92CF92DF92EF92FF920F931F93CF9344
:10339E00DF938C01B62EFC01EF59FF4F1082DC013A
:1033AE0090968D919C919197DC019496ED91FC9164
:1033BE009597099599230CF471C00E94CD1DE801D3
:1033CE00CF59DF4F6B017C01B4E6CB0ED11CE11C53
:1033DE00F11C07C00E94CD1D6C157D058E059F0545
:1033EE0018F488818823B1F3F801EE59FF4F8081DC
:1033FE00882319F0823001F149C0B1100DC0F801D7
:10340E00E757FF4F808191810196877099278083BE
:10341E00918380E090E042C0E1E0BE123AC0F80134
:10342E00E557FF4F808191810196877099278083A0
:10343E00918380E090E032C0B1100BC0F801E757E5
:10344E00FF4F8081918101968770992780839183A8
:10345E000DC0F1E0BF120AC0F801E557FF4F8081A1
:10346E00918101968770992780839183F801ED569B
:10347E00FF4F8081882381F020E030E0A90167E2D0
:10348E00C8010E9449278EE092ED08C08EE092EDB1
:10349E0005C080E090E002C08EE092EDDF91CF910A
:1034AE001F910F91FF90EF90DF90CF90BF900895F6
:1034BE00CF93DF93559910C081E090E08093F3385D
:1034CE009093F4388091EF389091F0380196843FC4
:1034DE0021E0920730F47BC01092F3381092F4384A
:1034EE0069C084EF91E08093EF389093F03880912B
:1034FE00F5389091F638892B09F06DC081E090E097
:10350E008093F5389093F6388091F1389091F23897
:10351E000A9799F482E090E08093EB389093EC3820
:10352E0080EA90E08093F1389093F23880E18093B6
:10353E00450488E08093460412C081E090E08093B9
:10354E00EB389093EC388AE090E08093F1389093CA
:10355E00F23880E18093460488E08093450410920F
:10356E00ED381092EE38C1EFD8E310C08091ED38EF
:10357E009091EE3801968093ED389093EE38C29785
:10358E0028F01092ED381092EE3807C0688180E175
:10359E0090E00E941C268111E9CF1092FD380E9406
:1035AE00E02981E08093FD388091F3389091F438D2
:1035BE00892B89F41092EF381092F0381092ED3872
:1035CE001092EE381092F5381092F63804C08093AF
:0C35DE00EF389093F038DF91CF91089502
:1035EA000F931F93CF93DF93CDB7DEB72A97CDBF43
:1035FA00DEBF8C01AE014F5F5F4F62E170E00E9457
:10360A00DB2349815A814F775E7F62E170E0C8010E
:10361A000E9471261B821C821D821E821F821886AE
:10362A00D8011296ED91FC911397808121E030E048
:10363A00AE014D5F5F4F6CE170E090E00E9460293F
:10364A008B819C8180628B839C83D8011296ED9139
:10365A00FC91139789879A87808121E030E0AE0137
:10366A00475F5F4F6CE170E090E00E946829D801E3
:10367A001296ED91FC911397808121E030E0AE0122
:10368A004B5F5F4F6CE170E090E00E9460292B81F4
:10369A003C818D819E8182279327882359F08F81CF
:1036AA0098859C012F5F3F4F2F8338878436910579
:1036BA0009F0B6CF40E851E060E170E0C8010E942D
:1036CA0071262A96CDBFDEBFDF91CF911F910F9150
:0236DA00089551
:1036DC00CF93DF930E943926C0E0D4E01882A0E299
:1036EC00B4E084E08C93E0E4F4E098E190831C82F5
:1036FC0014968C9314971482188A198A1A8A1B8A26
:10370C001C8A1D8A1E8A1F8A50961C9250975196AD
:10371C001C92519752961C92529753961C92539707
:10372C0054961C92549755961C92559756961C92EB
:10373C0056978BE057968C93108A118A83E0828B74
:10374C00138A148A158A168A178AE0E0F2E010822E
:10375C001182128213828BE29AE28093E338909367
:10376C00E4388CE29AE28093E1389093E2388DE26F
:10377C009AE28093DF389093E0388EE29AE280935D
:10378C00DD389093DE388FE29AE28093DB389093A9
:10379C00DC3880E39AE28093D9389093DA3881E36D
:1037AC009AE28093D7389093D83882E39AE2809348
:0C37BC00D5389093D638DF91CF91089556
:1037C800DF92EF92FF920F931F93CF93DF93CDB7C2
:1037D800DEB7A297CDBFDEBF7C01D62E41155105BD
:1037E80071F0FA0190818181082F02950F7010E025
:1037F80007701127000F111F000F111F04C090E060
:1038080080E000E010E022E0200F29839A838B8378
:10381800BA016E5F7F4FA801CE0104960E94472926
:1038280098012D5F3F4FF70135970280F381E02D16
:103838008081AE014F5F5F4F61E570E090E00E94CC
:1038480068298091483890914938029720F46D2D65
:10385800606370E003C06D2D606270E0F70135971A
:103868000280F381E02D69A37AA3808121E030E012
:10387800AE014F5D5F4F60E570E090E00E946829FF
:103888001816190614F480E090E0A296CDBFDEBFAA
:10389800DF91CF911F910F91FF90EF90DF900895E6
:1038A800CF92DF92EF92FF920F931F93CF93DF9304
:1038B80000D000D0CDB7DEB78C016A017B01DC01F6
:1038C8001296ED91FC911397808121E030E0AE01D2
:1038D8004F5F5F4F6AE170E090E00E946029BCEDA5
:1038E800CB16B5E0DB06E104F10441F088EBC8161D
:1038F8008BE0D806E104F10441F00EC089819A8179
:103908008F7C806189839A830CC089819A818F7C9E
:10391800806289839A8305C089819A818F7C898393
:103928009A83D8011296ED91FC91139789819A8117
:103938008B839C83808121E030E0AE014D5F5F4F37
:103948006AE170E090E00E9468292496CDBFDEBF4E
:10395800DF91CF911F910F91FF90EF90DF90CF9063
:023968000895C0
:10396A000F931F93CF93DF9300D0CDB7DEB78C01AF
:10397A00DC0190968D919C919197DC011496ED91C2
:10398A00FC9115970995C8010E94811EF80180A132
:10399A0091A1DC011696ED91FC9117970995F80112
:1039AA00EF5BFF4F21E0009709F420E02083892B89
:1039BA0029F081E0F801EE5BFF4F8083C8010E9485
:1039CA00EA2440E050E0682FC8010E94721DF80105
:1039DA00E55AFF4F1082118212821382F80180A1E8
:1039EA0091A1DC011C96ED91FC911D97AE014E5FF1
:1039FA005F4FBE016F5F7F4F0995892B29F44A817A
:103A0A006981C8010E94A21640E050E064E5C8013D
:103A1A000E94721D0F900F90DF91CF911F910F910D
:023A2A000895FD
:103A2C001F93CF93DF93FC01E952FF4FDC01AD50A4
:103A3C00BF4FCD91DC911C161D060CF044C020E04C
:103A4C0030E012E34191519161917191DB01CA0116
:103A5C00072E7EE1B695A795979587957A95D1F720
:103A6C00702D811129C0DB01CA01072E7AE0B695B1
:103A7C00A795979587957A95D1F7702D9370189F88
:103A8C00D001199FB00D1124A838B341A9F453707B
:103A9C00CA01880F991F440F551F440F551F440F1F
:103AAC00551F480F591F483B8BE0580770F44C3D8D
:103ABC00554068F483E00CC02F5F3F4FC217D3070B
:103ACC0009F685E005C085E003C085E001C084E00F
:083ADC00DF91CF911F910895C5
:103AE400FF920F931F93CF93DF93EC01F62E8A017D
:103AF400452BE1F0FC01EF5AFF4F60830E94CD1D7E
:103B040020E030E0FE01EE5AFF4FDC01CB01800FD4
:103B1400911FA21FB31F80839183A283B383CA5AC8
:103B2400DF4F088319832A833B832FC0FC01E15BA9
:103B3400FF4F80818B3029F5681779F064E0CE015E
:103B44000E9455280AC0FE01ED56FF4F808188234C
:103B540021F065E0CE010E945528FE01EF5AFF4F87
:103B64001082DE01A05BBF4F8C9132978083FC9260
:103B740070968081811109C0C05ADF4F81E088832B
:103B840004C08BE06813E9CFDECFDF91CF911F91A2
:063B94000F91FF9008955F
:103B9A00CF93DF93CDB7DEB72897CDBFDEBF809135
:103BAA00D1389091D238A091D338B091D438898342
:103BBA009A83AB83BC838091D1389091D238A091FB
:103BCA00D338B091D4388D839E83AF83B887498127
:103BDA005A816B817C818D819E81AF81B88548171E
:103BEA0059076A077B0729F18091D1389091D23819
:103BFA00A091D338B091D43889839A83AB83BC839C
:103C0A008091D1389091D238A091D338B091D438DC
:103C1A008D839E83AF83B88749815A816B817C816A
:103C2A008D819E81AF81B885481759076A077B073E
:103C3A00D9F669817A818B819C812896CDBFDEBFB6
:063C4A00DF91CF91089507
:103C50000F931F93CF93DF938C018DE290E00E942E
:103C60008E14EC01892B09F445C00A831B8388E07C
:103C700092E189879A878DED95E28B879C878EE20A
:103C800090E1898F9A8F8FEA95E18B8F9C8F84E2E8
:103C900091E28F87988B83ED9FE1898B9A8B83E0EC
:103CA00094E28B8B9C8B84EE90E28D8B9E8B80E2DA
:103CB00090E28F8B988F80E39FE18F8F98A383E3AF
:103CC00093E289A39AA389E19AE28FA398A784EE4D
:103CD0009BE189A79AA781E08C838CE998E38D8387
:103CE0009E83CE0105960E945218888399838C2F5B
:103CF0009D2F02C08EE092EDDF91CF911F910F9129
:023D0000089524
:103D0200CF93DF93EC0188A199A1DC015296ED914A
:103D1200FC91539760E009951CA28FAD882319F09E
:103D220018AE19AE1FAE1EAEFE01ED56FF4F108249
:103D3200E257FF4F108235961082E159F1098FEF59
:103D42009FEF8083918388A199A1DC015496ED9124
:103D5200FC91559740E060E00995FE01ED5BFF4F55
:103D6200108231961082E454FF4F10821182128227
:103D720013823497108211821282138288A199A130
:103D8200DC015096ED91FC9151974DAD60E00995A3
:103D920060E0CE010E94C227FE01E55BFF4F108268
:103DA2001182C75BDF4F18821982DF91CF9108958C
:103DB2000F931F93CF93DF93CDB7DEB76E97CDBF2F
:103DC200DEBFFE0131962EE1DF011D922A95E9F751
:103DD2006F7170E0FC0125A1213019F0E0E0F0E004
:103DE20002C0E0E0F1E0DC0196962C91213019F05E
:103DF20000E010E002C000E210E09C0127573F4FB4
:103E0200D9012D913C9127703327322F2227330F6E
:103E1200AC0149575F4FDA014D915C9100245695F0
:103E220047950794569547950794542F402D242B78
:103E3200352B622B732BE62BF72BE02BF12BE9832F
:103E4200FA83AE014F5F5F4F60E00E94C7196E9622
:0E3E5200CDBFDEBFDF91CF911F910F9108957C
:103E60000F931F93CF93DF9300D0CDB7DEB78C01B4
:103E700061112CC0FC0135970280F381E02D19827D
:103E80001A82808121E030E0AE014F5F5F4F6FE228
:103E900070E090E00E946829292F220F220B022E49
:103EA000000C330B8223932327C0F80135978481BC
:103EB000882319F04FE752E802C04DE752E862E16B
:103EC00070E0C80105970E94712616C0FC01359765
:103ED0000280F381E02D83E290E089839A838081E0
:103EE00021E030E0AE014F5F5F4F6FE270E090E0A5
:103EF0000E9468299923CCF60F900F90DF91CF9103
:063F00001F910F910895CE
:103F0600EBE9F8E380818E7F8083809197389091EA
:103F16009838019719F40E94B42902C00E94AE296C
:103F2600E8E7F8E3878D90A10197878F90A3892B07
:103F360071F0A58DB68D809118088C93858D968D20
:103F46000196858F968F0E949C2984E00895A8E7A4
:103F5600B8E35D96ED91FC915E9780911808808399
:103F66005D968D919C915E9701965D968D939C933F
:103F76005E97EBE9F8E3808188608083ED91FC91A0
:103F860011971C968D919C911D97099582508230B0
:103F960020F40E94B42988E008950E949B28089581
:103FA600AF92BF92CF92DF92FF920F931F93CF9360
:103FB600DF9300D0CDB7DEB75B016A010597DC0160
:103FC6001296ED91FC911397808121E030E0AE01CD
:103FD6004F5F5F4F6DE170E090E00E9460290981BC
:103FE6001A81B801729562956F7067277F7067278F
:103FF600B62FB170FB2E6B2FC801837099270E94D4
:104006005526F5018083C8019695879596958795DF
:104016006F2D837099270E945526D6018C9380E0D8
:1040260090E00F900F90DF91CF911F910F91FF902D
:0A403600DF90CF90BF90AF90089587
:10404000FF920F931F93CF93DF9300D000D0CDB793
:10405000DEB78C01F62EFC0135970280F381E02D4E
:10406000808121E030E0AE014F5F5F4F6CE170E096
:1040700090E00E946029FF2021F089819A8181606F
:1040800003C089819A818E7FF80135970280F38180
:10409000E02D8B839C83808121E030E0AE014D5F79
:1040A0005F4F6CE170E090E00E94682918161906D5
:1040B00014F480E090E02496CDBFDEBFDF91CF9175
:0840C0001F910F91FF9008957C
:1040C8001F920F920FB60F9211242F933F934F9385
:1040D8005F936F937F938F939F93AF93BF93EF9368
:1040E800FF933B9B05C0E091E138F091E2380995D8
:1040F8003A9B05C0E091DD38F091DE380995399B8F
:1041080005C0E091D738F091D8380995389B05C09B
:10411800E091D538F091D63809958FEF87B9FF919E
:10412800EF91BF91AF919F918F917F916F915F9127
:104138004F913F912F910F900FBE0F901F901895A0
:104148001F920F920FB60F9211242F933F934F9304
:104158005F936F937F938F939F93AF93BF93EF93E7
:10416800FF935C9B05C0E091E338F091E438099532
:104178005B9B05C0E091DF38F091E03809955D9BC5
:1041880005C0E091DB38F091DC3809955A9B05C0F1
:10419800E091D938F091DA3809958FEF8BB9FF9112
:1041A800EF91BF91AF919F918F917F916F915F91A7
:1041B8004F913F912F910F900FBE0F901F90189520
:1041C800FF920F931F93CF93DF9300D000D0CDB70A
:1041D800DEB78C01F62EFC0135970280F381E02DC5
:1041E800808121E030E0AE014F5F5F4F69E170E010
:1041F80090E00E94602981E0F81204C089819A81C8
:10420800826003C089819A818D7FF8013597028089
:10421800F381E02D8B839C83808121E030E0AE0127
:104228004D5F5F4F69E170E090E00E946829249635
:10423800CDBFDEBFDF91CF911F910F91FF90089501
:10424800CF93DF9300D0CDB7DEB7633071F028F499
:104258006130B9F0623031F011C0643049F0653036
:1042680051F00CC02AE030E00EC025E030E00BC071
:1042780025E130E008C025E230E005C02FE030E05D
:1042880002C020E030E0FC0135970280F381E02D88
:1042980029833A83808121E030E0AE014F5F5F4F90
:1042A8006AE170E090E00E9468291816190614F473
:0E42B80080E090E00F900F90DF91CF9108957D
:1042C6000E94D6298823C9F0A8E7B8E31696ED918F
:1042D600FC91179752968D919C9153970995823030
:1042E60019F0833021F006C00E948E2808950E949E
:1042F600DC2808950E940B290895EBE9F8E38081F4
:1043060088608083A8E7B8E3ED91FC9111971C962D
:104316008D919C911D970995833039F0843041F039
:10432600823049F40E948E2808950E94DC28089560
:0C4336000E94DC2108950E940B290895CC
:104342001F920F920FB60F9211242F933F934F9308
:104352005F936F937F938F939F93AF93BF93EF93EB
:10436200FF938091430180FF07C0E091E938F0910B
:10437200EA38309709F009958091430181FF07C01F
:10438200E091E738F091E838309709F0099583E039
:1043920080934301FF91EF91BF91AF919F918F91D4
:1043A2007F916F915F914F913F912F910F900FBE2F
:0643B2000F901F9018950A
:1043B8000E94D6298823C9F0A8E7B8E31696ED919C
:1043C800FC91179752968D919C915397099582303D
:1043D80019F0833021F006C00E948E2808950E94AB
:1043E800DC2808950E940B290895EBE9F8E3808101
:1043F8008E7F8083E8E7F8E3A58DB68DCD01019621
:10440800858F968F8C9180931808878D90A101973E
:10441800878F90A3892B11F485E0089583E0089590
:1044280090919B3892FD2EC0E8E7F8E3848FABE9C2
:10443800B8E3892F887F9EE091A324EF31E0228F93
:10444800338F846088608C9381E29AE280839183C1
:1044580014861586828393831686178684839583AC
:10446800108A118A86839783128A138A83E29AE2D2
:1044780080879187148A158A0E9435290E948A2983
:0844880080E0089581E0089531
:104490001F93CF93DF93CDB7DEB72597CDBFDEBF98
:1044A000182F6D834B835C8329833A83812F0E946D
:1044B00014228823D9F3BE016F5F7F4F89E198E210
:1044C0000E94782961E070E0CE0105960E94E727FE
:1044D00060E070E085E29AE20E947E290E94F32962
:1044E0000E940F258130E1F32596CDBFDEBFDF911D
:0644F000CF911F91089519
:1044F6001F93CF93DF93CDB7DEB72597CDBFDEBF32
:10450600182F6D834B835C8329833A83812F0E9406
:1045160014228823D9F3BE016F5F7F4F88E298E2A9
:104526000E94782961E070E0CE0105960E94E72797
:1045360060E070E085E29AE20E947E290E94F329FB
:104546000E940F258130E1F32596CDBFDEBFDF91B6
:06455600CF911F910895B2
:10455C00CF93DF930E948A2980919B3880FF07C0FC
:10456C000E94D629882319F08FE0809399380E94F5
:10457C009629882319F080E1809399380E9490291C
:10458C00882319F081E180939938C8E7D8E3E9A131
:10459C00F0E0EE0FFF1FEC5AF74C0190F081E02D8C
:0A45AC00099589A3DF91CF910895CE
:1045B6001F920F920FB60F9211242F933F934F9392
:1045C6005F936F937F938F939F93AF93BF93EF9375
:1045D600FF93E091E538F091E638309709F00995B8
:1045E60081E080935301FF91EF91BF91AF919F912D
:1045F6008F917F916F915F914F913F912F910F9086
:084606000FBE0F901F901895E4
:10460E0080E190E00E94032A90E08093F13890932D
:10461E00F238803A910569F482E090E08093EB38AD
:10462E009093EC3880E18093450488E080934604B3
:10463E0008958AE090E08093F1389093F23881E00B
:10464E0090E08093EB389093EC3880E180934604B1
:08465E0088E0809345040895F3
:10466600CF93DF9300D0CDB7DEB7413019F443E0E6
:1046760050E002C042E050E0213009F44860FC01FD
:1046860035970280F381E02D49835A83808121E0AA
:1046960030E0AE014F5F5F4F6EE270E090E00E9447
:1046A60068291816190614F480E090E00F900F9010
:0646B600DF91CF91089591
:1046BC00CF93DF9300D0CDB7DEB72091F9382330FC
:1046CC00C9F0FC019091FB389F7190669093FB3878
:1046DC000280F381E02D892F90E089839A83808179
:1046EC0021E030E0AE014F5F5F4F63E870E090E097
:1046FC000E94682983E08093F9380F900F90DF9126
:04470C00CF910895AC
:104710008F929F92AF92BF92CF92DF92EF92FF92D1
:104720004B015C010E94CD1D6B017C01C501B401F0
:1047300028EE33E040E050E00E949A25C20ED31EDE
:10474000E41EF51E0E94CD1D6C157D058E059F058E
:10475000C8F3FF90EF90DF90CF90BF90AF909F9005
:044760008F90089599
:10476400CF92DF92EF92FF92611571058105910559
:10477400D9F06B017C010E94CD1DC60ED71EE81E28
:10478400F91EC616D706E806F90638F40E94CD1DB0
:10479400C616D706E806F906C8F30E94CD1D6C15A7
:1047A4007D058E059F05C8F3FF90EF90DF90CF90B5
:0247B400089566
:1047B6000F931F93CF93DF9300D0CDB7DEB78A0157
:1047C600DC011296ED91FC911397808122E030E096
:1047D600AE014F5F5F4F90E00E9460298A8190E0B2
:1047E600982F88272981822BF8018083918380E086
:1047F60090E00F900F90DF91CF911F910F91089548
:10480600CF93DF9300D0CDB7DEB70597DC011296C4
:10481600ED91FC91139781E090E0613011F080E01A
:1048260090E089839A83808121E030E0AE014F5F7A
:104836005F4F69E170E090E00E946829181619063A
:1048460014F480E090E00F900F90DF91CF910895DF
:104856000F931F93CF93DF9300D0CDB7DEB7FC0144
:1048660002811381CB01BA0129E130E040E050E03A
:104876000E949A2529833A83F801808121E030E05D
:10488600AE014F5F5F4F62E870E090E00E946829DA
:0E4896000F900F90DF91CF911F910F91089519
:1048A4000E94AF278AEE99E20E94DB290E94BA296E
:1048B40080E50E94102A0E940723609152D47091CF
:1048C40053D4809154D4909155D40E941D2789E0EB
:1048D40098E20E94CC2981E08093FD38529B0E948B
:0E48E40009280E94A8280E945F1AA895F7CF05
:1048F20040E068ED88E790E00E94EF2940E068ED33
:104902008CE790E00E94EF2940E068ED80E790E0BC
:104912000E94EF2941E168ED81E690E00E94EF29D3
:1049220040E068ED80E690E00E94EF2940E068ED0B
:0C49320082E690E00E94EF2980E00895EA
:10493E001F93CF93DF93FC01EC5BFF4F4081662307
:10494E0011F0411113C0162FEC0188A199A1DC01C1
:10495E005496ED91FC91559709959C0199234CF035
:10496E00CD5BDF4F188380E090E004C08EE092EDC7
:0C497E0001C0932FDF91CF911F9108958D
:10498A006115710581F090E0FC01EE0FFF1FE858F8
:10499A00F74C60837183880F991FFC01EC57F74C21
:1049AA0040835183089590E0FC01EE0FFF1FE85801
:1049BA00F74C21E23AE220833183880F991FFC01E8
:0A49CA00EC57F74C1082118208959B
:1049D400FC01DC01A05CBF4F9C91923091F41796CE
:1049E4008D919C91009789F0019789F000A0F1A125
:1049F400E02D0190F081E02D808981110AC08DE0C5
:104A04000895913041F48DE008958DE0089582E099
:0A4A1400089582E0089582E00895FD
:104A1E00CF93DF930E949029882341F0EBE9F8E3CE
:104A2E0080818D7F808382E080939A3880919B383D
:104A3E0081FD0EC0EBE9F8E38B7F8083C8E7D8E3F6
:104A4E008FEF8C8F0E948A290E9484298AA101C02F
:084A5E0081E0DF91CF91089582
:104A66000F931F934830510510F047E050E0411571
:104A76005105A9F0FB01A82FB92F9A01220F331F68
:104A8600220F331F620F731F0191119121913191F2
:104A96000D931D932D933D93E617F707A9F7CA01CA
:064AA6001F910F9108951D
:104AAC00EBE9F8E380818E7F8083A8E7B8E382E0AE
:104ABC0092968C9392971496ED91FC911597509633
:104ACC008D919C9151970995823019F0833021F08A
:104ADC0006C00E948E2808950E94DC2808950E942A
:044AEC000B290895F5
:104AF000FC0186AD811109C083AD811116C081E032
:104B000094AD9923A9F080E013C085AD811106C052
:104B100081E093AD992361F080E00AC0813039F4DF
:104B200094AD992329F080E003C080E001C080E0CB
:044B300081700895F3
:104B3400A1E21A2EAA1BBB1BFD010DC0AA1FBB1F9D
:104B4400EE1FFF1FA217B307E407F50720F0A21B0F
:104B5400B30BE40BF50B661F771F881F991F1A947C
:104B640069F760957095809590959B01AC01BD01A6
:044B7400CF010895D0
:104B7800E0E4F1E081818111FDCFE0E4F1E08FE133
:104B880090E0848795871086118681E090E082877F
:104B9800938782E08283178281E0808381898111F3
:104BA800FDCFE0E4F1E081E0828B81E2808B80E060
:024BB80008955E
:104BBA00CF93DF9300D0CDB7DEB70597DC0112960D
:104BCA00ED91FC911397808121E030E0AE014F5FB7
:104BDA005F4F6EE170E090E00E946029898182FB5C
:104BEA00882780F990E00F900F90DF91CF91089578
:104BFA000E94A229A8E7B8E382E092968C93929742
:104C0A001296ED91FC9113971E968D919C911F9788
:104C1A000995823019F0833021F006C00E948E284F
:0E4C2A0008950E94DC2808950E940029089534
:104C38001F93CF93DF93EC01162FE0E0F0E1828120
:104C480081FDFDCF44E06DE980E090E10E94EF290D
:104C5800DC5E188343E06DE980E090E10E94EF2973
:0A4C680080E0DF91CF911F910895C5
:104C7200E0E1F4E0808188608193E83184E0F80724
:104C8200C9F7E0E3F4E0808188608193E83384E04F
:104C9200F807C9F7E0E5F4E0808188608193E835A0
:084CA20084E0F807C9F708954A
:104CAA008230910549F08330910551F0019761F402
:104CBA0061110CC081E0089561110AC082E0089573
:104CCA00662341F085E0089580E0089583E0089521
:084CDA0084E0089580E00895D4
:104CE200CF93DF9300D0CDB7DEB749835A83DC017F
:104CF2001296ED91FC911397808122E030E0AE0193
:104D02004F5F5F4F90E00E94682980E090E00F9033
:084D12000F90DF91CF9108958D
:104D1A00CF93DF93EC018EE290E1898F9A8F8FEA2D
:104D2A0095E18B8F9C8F81E08C838CE998E38D834E
:104D3A009E83CE0105960E94521888839983DF913B
:044D4A00CF91089568
:104D4E0090919B3891FD13C0EBE9F8E3926090834C
:104D5E00882321F081E08093993803C082E080930C
:104D6E0099380E94AE220E94D52780E0089581E0F6
:024D7E00089596
:104D800080932838909329382EE1FB01AAE2B8E3FA
:104D900001900D922A95E1F7FC01E55AFF4F8081C1
:104DA0009181A281B381886080839183A283B38340
:024DB000089564
:104DB2009091FD38992359F01092FD3830E070E05F
:104DC20090E00E947B2281E08093FD3805C030E0B4
:0E4DD20070E090E00E947B2280E090E0089567
:104DE0009091FD38992359F01092FD3830E070E031
:104DF00090E00E94482281E08093FD3805C030E0B9
:0E4E000070E090E00E94482280E090E008956B
:104E0E00E0E0F8E084E790E080879187158280ECFF
:104E1E00868383E08783138614861686158681EB38
:0C4E2E0098E38093503890935138089519
:104E3A00E4E0F8E360837183828393838091F73897
:104E4A00811108C082E098E30E94281E80930038EE
:0C4E5A009093013881E08093F7380895B0
:104E6600CF93DF93FC0126AD222369F0EC010E946B
:104E76007825882329F0FE01EF56FF4F1082118214
:0C4E8600CE010E94811EDF91CF910895A3
:104E9200CF92DF92EF92FF92DC01A25BBF4FFC0147
:104EA200E05BFF4FAC917081A71303C0A9010E9480
:0C4EB200721DFF90EF90DF90CF900895EC
:104EBE001F93CF93DF93EC01162F88A199A1DC01EC
:104ECE005296ED91FC9153970995009709F41CA306
:084EDE00DF91CF911F910895AF
:104EE6008091D1389091D238A091D338B091D438EE
:104EF6000196A11DB11D8093D1389093D238A0930D
:084F0600D338B093D4380895AC
:104F0E0097FB072E16F4009407D077FD09D00E9468
:104F1E009B2707FC05D03EF4909581959F4F0895F1
:084F2E00709561957F4F089515
:104F3600AA1BBB1B51E107C0AA1FBB1FA617B707B9
:104F460010F0A61BB70B881F991F5A95A9F78095D5
:084F56009095BC01CD01089506
:104F5E000E946E1B0E94F4280E9479240E945829F8
:104F6E000E9473280E94C0290E94BC250E9481289D
:064F7E000E9407270895C0
:104F8400CF93DF93DC0190968D919C919197EC01E6
:104F9400EC8DFD8D96962C91969795964C9109954E
:064FA400DF91CF9108959A
:104FAA00CF93DF9380919B3881FF09C0CBE9D8E387
:104FBA000E943E290E94AE22888181FDF9CFDF91AD
:044FCA00CF910895E6
:104FCE009C0190919B3893FF0BC0E8E7F8E3258F87
:104FDE00368F678F70A3EBE9F8E3892F877F808385
:024FEE00089524
:104FF000FC0145A326A380A191A1DC015C96ED9163
:10500000FC915D9709951816190614F480E090E05C
:02501000089501
:105012008091FD38882359F01092FD38529904C0CE
:105022000E941629529BFCCF81E08093FD3808959F
:10503200FC0160817181828193810E94E72760E097
:0E50420070E080E090E00E94782982E00895FE
:10505000FC0160817181828193810E94E72760E079
:0E50600070E080E090E00E94782984E00895DE
:10506E001F920F920FB60F9211248F9381E08093AF
:0E507E0004108F910F900FBE0F901F90189589
:10508C001F920F920FB60F9211248F9381E0809391
:0E509C008A008F910F900FBE0F901F901895F5
:1050AA00DC01DA966C93DA9790968D919C919197A0
:0E50BA00DC011A96ED91FC911B970995089563
:1050C800A29FB001B39FC001A39F700D811D112441
:0E50D800911DB29F700D811D1124911D089530
:1050E600E0E1F8E0108212828BE0868381E0838320
:0C50F600158217821482108680E0089555
:1051020040E068ED80E191E00E94EF29E0E1F1E00A
:0A51120012821382789480E0089561
:10511C00EBE9F8E380818160808380919438880F7B
:0A512C0081608093170884E0089565
:105136000E94B4290E94A829EBE9F8E380818D7FBB
:0A514600808310929A3880E00895EB
:105150008091F738882341F0E0910038F0910138D0
:0A516000808191810E94E00808950B
:10516A00FC01E55AFF4F40815181628173814160A0
:0A517A00408351836283738308951C
:10518400FC01E55AFF4F4081518162817381426085
:0A5194004083518362837383089502
:10519E00FC01E55AFF4F4081518162817381446069
:0A51AE0040835183628373830895E8
:1051B800EBE9F8E380818160808380919438880FDF
:0851C8008093170883E00895AD
:1051D0000E943529EBE9F8E380818D7F808382E0AE
:0851E00080939A388EE00895D7
:1051E80040E068ED80E890E00E94EF29E0E8F0E018
:0851F8001186108680E0089585
:105200000E943529EBE9F8E380818D7F808310923D
:065210009A388EE00895BB
:105216000E94A829EBE9F8E380818D7F80831092B4
:065226009A3880E00895B3
:10522C008091F738882331F08091003890910138C3
:06523C000E942E0E0895F1
:105242000E946428A59F900DB49F900DA49F800D8D
:06525200911D11240895D6
:10525800EBE9F8E380818D7F808310929A3880E0B3
:025268000895A7
:10526A00E0E1F8E0848188608483858181608583B8
:02527A00089595
:10527C00E0E1F8E0858188231CF0858186FFFACF78
:02528C00089583
:10528E00FB01DC0102C001900D9241505040D8F755
:02529E00089571
:1052A000E0E0F8E0948195FFFDCF80930208089537
:1052B00040E068ED80E590E00E94EF2980E00895ED
:1052C000E0910438F0910538099580E090E0089568
:1052D000E0910638F0910738099580E090E0089554
:1052E000FC01EE59FF4F6083319721E02083089540
:0C52F000AB01BC0180E00E94C5240895C1
:0C52FC00AB01BC0182E00E94C5240895B3
:0C530800E0E1F8E083818F738383089557
:0C531400E0E1F8E08581806C858308955D
:0C5320008091150882FB882780F9089511
:0C532C008091150883FB882780F9089504
:0C533800E0E1F8E0848182608483089545
:0C534400E0E1F8E0858188608583089531
:0C535000E0E1F8E084818360848308952C
:0C535C00E0E1F8E084818B7F84830895F9
:0C536800E0E1F8E0848184608483089513
:0C537400E0E4F1E082898160828B089502
:0C538000E0E0F0E11182138280E008956B
:0C538C00EE0FFF1F0590F491E02D099436
:0A5398008093D9389093DA38089515
:0A53A2000E94502980E090E0089579
:0A53AC008091150882958170089524
:0A53B6008093E5389093E6380895DF
:0A53C00080E098E30E948D26089516
:0A53CA008A5D9E4FFC016083089588
:0A53D4000E94132A0E94162A089571
:0853DE00FC0164BF4083089547
:0853E60080E00E94A726089553
:0853EE000E94AE2983E008953E
:0853F6000E94AE2984E0089535
:0853FE000E94B42988E0089523
:085406009C5EFC018081089509
:06540E000E948E280895A3
:065414000E948E2808959D
:06541A000E94DC28089549
:065420008093023808959C
:065426000E9473270895A7
:06542C000E94CD1D089551
:065432008FEF9FEF0895CB
:065438000E94B51C08955E
:04543E000C940000CA
:0454420081E0089568
:0454460085E0089560
:04544A0083E008955E
:04544E003290010097
:04545200F026D92641
:025456000895B7
:025458000895B5
:02545A000895B3
:02545C000895B1
:02545E000895AF
:025460000895AD
:025462000895AB
:025464000895A9
:105466002C298E28DC28DC21831F63210A2A0D2A99
:10547600072A0B29FB29F7299B28FF2900295625EE
:04548600FD25E828F0
:10548A00BF3803004ED401000000000000000000F5
:05549A0001000000000C
:0E549F000000000200000000D1290000000003
:0C54AD002C9101042CD102003C21DCC039
:0654B9000000FE38200097
:0254BF000100EA
:0154C100FFEB
:0154C200FFEA
:0154C3007474
:02000004008278
:090000000800020000C407000022
:00000001FF
